:100000000C949B020C94C3020C94C3020C949603B0
:100010000C94880C0C94D30C0C94C3020C94C30263
:100020000C94C3020C94C3020C94C3020C94A0035E
:100030000C94C3020C945C0E0C94C3020C94C30287
:100040000C94412E0C94C3020C94622B0C94942BB0
:100050000C94C3020C94C3020C94C3020C94C3020C
:100060000C9462250C94C302315700313030206D5E
:100070005700506F776572203A20006D6F64756C81
:1000800065203A20006465627567206D6F646500C5
:1000900052464D32334250002A2A2A20626164209F
:1000A00062696E64636F6465202100202A2A2A2019
:1000B00053657269616C20627566666572203A00EC
:1000C000202A2A2A204649464F206F766572666CA0
:1000D0006F7720210000000000963007772C610E1A
:1000E000EEBA51099919C46D078FF46A7035A5638A
:1000F000E9A395649E3288DB0EA4B8DC791EE9D5AD
:10010000E088D9D2972B4CB609BD7CB17E072DB8BB
:10011000E7911DBF906410B71DF220B06A4871B915
:10012000F3DE41BE847DD4DA1AEBE4DD6D51B5D443
:10013000F4C785D38356986C13C0A86B647AF962B0
:10014000FDECC9658A4F5C0114D96C0663633D0FF1
:10015000FAF50D088DC8206E3B5E10694CE44160D5
:10016000D5727167A2D1E4033C47D4044BFD850DE1
:10017000D26BB50AA5FAA8B5356C98B242D6C9BB00
:10018000DB40F9BCACE36CD832755CDF45CF0DD6F3
:10019000DC593DD1ABAC30D9263A00DE518051D785
:1001A000C81661D0BFB5F4B42123C4B3569995BA2B
:1001B000CF0FA5BDB89EB802280888055FB2D90C3C
:1001C000C624E90BB1877C6F2F114C6858AB1D61B9
:1001D000C13D2D66B69041DC760671DB01BC20D2B4
:1001E000982A10D5EF8985B1711FB5B606A5E4BF71
:1001F0009F33D4B8E8A2C9077834F9000F8EA80954
:100200009618980EE1BB0D6A7F2D3D6D08976C64C2
:1002100091015C63E6F4516B6B62616C1CD83065D4
:10022000854E0062F2ED95066C7BA5011BC1F408BA
:100230008257C40FF5C6D9B06550E9B712EAB8BE07
:100240008B7C88B9FCDF1DDD62492DDA15F37CD388
:100250008C654CD4FB5861B24DCE51B53A7400BC9C
:10026000A3E230BBD441A5DF4AD795D83D6DC4D1B8
:10027000A4FBF4D6D36AE96943FCD96E3446886797
:10028000ADD0B860DA732D0444E51D03335F4C0A2A
:10029000AAC97C0DDD3C710550AA41022710100B44
:1002A000BE86200CC925B56857B3856F2009D46672
:1002B000B99FE461CE0EF9DE5E98C9D9292298D0A3
:1002C000B0B4A8D7C7173DB359810DB42E3B5CBD60
:1002D000B7AD6CBAC02083B8EDB6B3BF9A0CE2B626
:1002E000039AD2B1743947D5EAAF77D29D1526DB90
:1002F000048316DC73120B63E3843B64943E6A6DE3
:100300000DA85A6A7A0BCF0EE49DFF099327AE0021
:100310000AB19E077D44930FF0D2A3088768F201CB
:100320001EFEC206695D5762F7CB67658071366C49
:1003300019E7066B6E761BD4FEE02BD3895A7ADA66
:1003400010CC4ADD676FDFB9F9F9EFBE8E43BEB757
:1003500017D58EB060E8A3D6D67E93D1A1C4C2D8FB
:100360003852F2DF4FF167BBD16757BCA6DD06B547
:100370003F4B36B248DA2B0DD84C1B0AAFF64A0376
:1003800036607A0441C3EF60DF55DF67A8EF8E6EF9
:100390003179BE69468CB361CB1A8366BCA0D26F3B
:1003A0002536E2685295770CCC03470BBBB9160291
:1003B000222F260555BE3BBAC5280BBDB2925AB4B2
:1003C0002B046AB35CA7FFD7C231CFD0B58B9ED9BF
:1003D0002C1DAEDE5BB0C2649B26F263EC9CA36A6C
:1003E000750A936D02A906099C3F360EEB856707D7
:1003F0007213570005824ABF95147AB8E2AE2BB14A
:100400007B381BB60C9B8ED2920DBED5E5B7EFDCC8
:100410007C21DFDB0BD4D2D38642E2D4F1F8B3DD0A
:10042000686E83DA1FCD16BE815B26B9F6E177B020
:100430006F7747B718E65A0888706A0FFFCA3B06FD
:10044000665C0B0111FF9E658F69AE62F8D3FF6B8E
:100450006145CF6C1678E20AA0EED20DD754830422
:100460004EC2B30339612667A7F71660D04D4769BE
:1004700049DB776E3E4A6AD1AEDC5AD6D9660BDFCD
:1004800040F03BD83753AEBCA9C59EBBDE7FCFB290
:1004900047E9FFB5301CF2BDBD8AC2BACA3093B37A
:1004A00053A6A3B4240536D0BA9306D7CD2957DE78
:1004B00054BF67D9232E7A66B3B84A61C4021B6859
:1004C0005D942B6F2A37BE0BB4A18E0CC31BDF05C6
:1004D0005A8DEF022D000000080002010000030405
:1004E0000700000000000000000102040810204086
:1004F00080010204081020010204081020040404F2
:1005000004040404040202020202020303030303BC
:100510000300000000230026002900000000002541
:100520000028002B0000000000240027002A000003
:10053000F618BC27C42B11241FBECFEFD8E0DEBFB6
:10054000CDBF11E0A0E0B1E0E6E1F3E602C0059026
:100550000D92A23AB107D9F727E0A2EAB1E001C0B3
:100560001D92AF37B207E1F712E0CBE9D2E004C049
:100570002197FE010E945331C839D107C9F70E9463
:10058000F32B0C9489310C9400000C9473310C946F
:100590007B31DC01ED91FC910190F081E02D09941B
:1005A000109281001092850010928400000080E477
:1005B0009CE9909387008093860082E0809380007E
:1005C0008AE180938100000080913501882321F029
:1005D00081E080936F00089510926F00089589352F
:1005E0002BE1920728F0809135038093340314C0E7
:1005F00020913001222399F09C01285E3340213A5A
:100600003F4068F0809135038F3030F4809135039E
:100610008F5F809335030895109235030895E0911C
:100620003503F0E0EE0FFF1FEA5FFE4F91838083FA
:10063000E9CF80916F008E7F80936F0080911806C4
:1006400081111FC08091C50110926C0010926D0045
:10065000882321F080916D00806803C080916D0037
:10066000886080936D00809168008E7F8093680021
:10067000809168008D7F809368008091680084601D
:1006800036C08091EC058130C1F410926C0010925C
:100690006D0080916C00886080936C008091680090
:1006A0008E7F8093680080916800826080936800EC
:1006B000809168008B7F809368008091EC058111A8
:1006C00018C010926C0010926D0080916C008160D7
:1006D00080936C00809168008E7F80936800809189
:1006E0006800826080936800809168008B7F8093AF
:1006F000680085E69AEE909387008093860082E0FA
:1007000080938000109281001092850010928400E6
:100710008AE1809381000895A0E3B3E08C91E2E642
:10072000F2E0828311968C91838308951F920F9239
:100730000FB60F9211240F900FBE0F901F901895B7
:100740001F920F920FB60F9211240F900FBE0F90B1
:100750001F9018950E94972E7093D2016093D1013B
:1007600081E08093D001089565E580E090E00E94EB
:10077000C7026CE481E090E00E94C70262E582E07B
:1007800090E00E94C70263E583E090E00C94C7020A
:1007900062E084E090E00E94C7026FE185E090E0B3
:1007A0000C94C70262E084E090E00E94C70260E21D
:1007B00085E090E00C94C70262E084E090E00E9443
:1007C000C70261E285E090E00C94C70262E084E039
:1007D00090E00E94C70262E285E090E00C94C702BC
:1007E00062E084E090E00E94C70263E285E090E06E
:1007F0000C94C7020F931F93CF93DF9305EF11E083
:10080000C3E3D0E0F80161918F01CE010E94C702DD
:100810002196C334D105B1F7DF91CF911F910F918C
:1008200008956091050283E490E00C94C7020F9351
:100830001F93CF93DF9306E012E0C4E4D0E0F80109
:1008400061918F01CE010E94C7022196C435D10566
:10085000B1F7DF91CF911F910F9108958FEF9FEF27
:10086000DC018093000190930101A0930201B093F9
:1008700003011092CF011092CE01089580910001E2
:1008800090910101A0910201B0910301BC01CD0141
:1008900028EC62272BED722729EB822725E492278B
:1008A00008950F931F938A019B010827D901C8015E
:1008B0009927AA27BB27FC01EE0FFF1FEE0FFF1F92
:1008C000EB52FF4F85919591A591B491452F562FED
:1008D000672F77278A019B01082719272A273B279B
:1008E000C901B8011F910F910895DF92EF92FF9215
:1008F0000F931F93CF93DF938C017B01D42EEC01D8
:100900004FEF5FEFBA019E01201B310B2E153F0503
:1009100034F489910E945104AB01BC01F4CFCB01A6
:10092000BA016095709580959095DD2041F027E3A0
:10093000622724E2722726E482272AEB9227DF919E
:10094000CF911F910F91FF90EF90DF9008950000DD
:100950000C94C502EF92FF920F931F93CF935BE02D
:10096000E52EF12C00E010E0C70101970E94C502BE
:10097000C82FC7010E94C5022C2F30E0322F22273A
:10098000280F311DF801EE0FFF1FEA5FFE4F318384
:1009900020830F5F1F4F82E0E80EF11C003111052C
:1009A00019F7CF911F910F91FF90EF900895EF925B
:1009B000FF920F931F93CF93DF938AE290E00E9400
:1009C000C50290E08630910510F085E090E09093AC
:1009D0002C0180932B01E0902B01F0902C0106E27A
:1009E00011E0C0E0D0E0CE15DF0549F0CE018B96D6
:1009F0000E94C502F80181938F012196F4CFDF9107
:100A0000CF911F910F91FF90EF9008950F931F9337
:100A1000CF93DF930DEF15E0C3E3D0E0CE010E944A
:100A2000C502F80181938F012196C334D105B1F736
:100A3000DF91CF911F910F91089583E490E00E9480
:100A4000C5028093EC050895CF93DF93C0E0D0E01A
:100A5000CE018C5B9F4F0E94C502FE01E351FA4F0D
:100A600080832196C031D10599F7DF91CF91089508
:100A70000F931F93CF93DF9360912B018AE290E055
:100A80000E94C70206E211E0C0E0D0E080912B0195
:100A900090912C01C817D90748F4F80161918F0192
:100AA000CE018B960E94C7022196F0CFDF91CF91A5
:100AB0001F910F910895682F82E390E00C94C70274
:100AC0008091F4010C945B0582E390E00C94C502E4
:100AD000CF93DF93C0E3D3E0688180E390E00E948E
:100AE000C702698181E390E0DF91CF910C94C70246
:100AF000CF93DF9380E390E00E94C502C0E3D3E090
:100B0000888381E390E00E94C5028983DF91CF91C1
:100B10000895CF92DF92EF92FF92CF93DF93CDB7FC
:100B2000DEB72C970FB6F894DEBF0FBECDBF4FEFE8
:100B30005FEFBA0149835A836B837C8390E09C8783
:100B40008B872B853C854FE5429FC001439F900DCD
:100B500011249A8789872B853C852F5F3F4F429FC1
:100B6000C001439F900D1124059798878F83898535
:100B70009A859E838D832D813E818F81988528174C
:100B80003907A4F4C980DA80EB80FC808D819E81D6
:100B90000E94C502B701A6010E94510469837A83AD
:100BA0008B839C838D819E810196E3CF89819A817D
:100BB000AB81BC8180959095A095B09589839A83EF
:100BC000AB83BC8389819A81AB81BC8127E3822777
:100BD00024E2922726E4A2272AEBB22789839A836C
:100BE000AB83BC8369817A818B819C812C960FB603
:100BF000F894DEBF0FBECDBFDF91CF91FF90EF9095
:100C0000DF90CF9008959F92AF92BF92CF92DF92E4
:100C1000EF92FF920F931F93CF93DF93CDB7DEB781
:100C200028970FB6F894DEBF0FBECDBF8730910571
:100C30000CF09EC08C018FE590E098878F831E8218
:100C40001D82802F0E94890569837A838B839C8310
:100C500058018FEFA81AB80A2F813885A29EC001CB
:100C6000A39E900DB29E900D112401970E94C50283
:100C7000C82E2F813885A29EC001A39E900DB29EE2
:100C8000900D112402970E94C502D82E2F8138851D
:100C9000A29EC001A39E900DB29E900D11240397B9
:100CA0000E94C502E82E2F813885A29EC001A39E16
:100CB000900DB29E900D112404970E94C502F82E4B
:100CC0004F8158858D819E81049F9001059F300D35
:100CD000149F300D1124820F931F0E94A704B82E79
:100CE0004F8158858D819E81049F9001059F300D15
:100CF000149F300D1124820F931F01960E94A704A8
:100D0000A82E4F8158858D819E81049F9001059F5B
:100D1000300D149F300D1124820F931F02960E94F4
:100D2000A704982E4F8158858D819E81049F900144
:100D3000059F300D149F300D1124820F931F0396D1
:100D40000E94A704982F49815A816B817C81C41627
:100D5000D506E606F70661F485E5B81209C08CE40D
:100D6000A81206C082E5981203C081E0933509F00D
:100D700080E028960FB6F894DEBF0FBECDBFDF919E
:100D8000CF911F910F91FF90EF90DF90CF90BF9088
:100D9000AF909F9008950F931F93CF93DF9300D050
:100DA00000D0CDB7DEB7182F0E94890569837A83FA
:100DB0008B839C8369817A818B819C81212F30E098
:100DC000A9014F5F5F4F2FE5249F8001259F100DE4
:100DD0001124C80101970E94C70289819A81AB81C1
:100DE000BC81692F7A2F8B2F9927C80102970E9407
:100DF000C70289819A81AB81BC81BD01882799276F
:100E0000C80103970E94C70289819A81AB81BC8186
:100E10006B2F772788279927C80104970E94C7025C
:100E20000F900F900F900F90DF91CF911F910F9126
:100E300008950F931F93CF93DF9300D000D0CDB7C9
:100E4000DEB72FE5829FC00111249C838B838FE541
:100E5000689FB00111247A83698300E010E08B81E0
:100E60009C81800F911F0E94C50229813A81682FC1
:100E7000C901800F911F0E94C7020F5F1F4F0F35DE
:100E8000110569F70F900F900F900F90DF91CF91A0
:100E90001F910F910895EF92FF920F931F93CF939D
:100EA000DF93CDB7DEB727970FB6F894DEBF0FBE3E
:100EB000CDBFCE0101967C0100E010E0C8010E9488
:100EC0000306F70181937F010F5F1F4F0730110564
:100ED000A9F7CE0101967C0110E0F70181917F0115
:100EE000811112C0FE01319620E030E0819188230B
:100EF00029F0612F822F0E94190706C02F5F3F4FF4
:100F00002730310599F704C01F5F173031F781E0B2
:100F100027960FB6F894DEBF0FBECDBFDF91CF91FD
:100F20001F910F91FF90EF900895CF9380E00E9462
:100F3000CB06C1E06C2F80E00E941907CF5FC7305D
:100F4000C9F7CF910895EF92FF920F931F93CF931C
:100F5000DF930AE010E0C0E0D0E00000CE01880F8F
:100F6000991F9C012A5F3E4F7901F901808191818F
:100F7000692FC8010E94C702F70160817181C80111
:100F800001960E94C70221960E5F1F4FC031D10506
:100F900021F7DF91CF911F910F91FF90EF900C946B
:100FA0009507CF9384E090E00E94A704C82F85E0C6
:100FB00090E00E94A70490E024E6C29F800D911D5E
:100FC0001124CF910895CF93DF930E94D107873EDC
:100FD0009105F4F4C0E0D0E06C2FCE01C3960E94DE
:100FE000C7022196C031D105B9F7C4E4D0E060E072
:100FF000CE010E94C7022196C435D105C1F761E038
:1010000083E490E00E94C7020E94C8030E949507F3
:101010000E94D107873E910521F40E94D2030E94CD
:1010200095070E94D107883E910521F40E94DC03B8
:101030000E9495070E94D107893E910521F40E94E4
:10104000E6030E9495070E94D1078A3E9105D1F4DC
:101050006FEF84E490E00E94C70260E185E490E0D5
:101060000E94C70261E086E490E00E94C70260E04F
:1010700087E490E00E94C7020E94F003DF91CF91C5
:101080000C949507DF91CF910895462F20913E0350
:1010900030913F03263582E03807C4F48091420343
:1010A00090914303019668E572E00E94FE309093B0
:1010B0004303809342032F5F3F4F30933F032093BE
:1010C0003E03FC01E958FC4F408318C0809116068E
:1010D0008823A1F04091590250915A0260915B021D
:1010E00070915C022AE030E089ED96E00E94DF2CEE
:1010F00060EC70E089ED96E00E94722C80913E03D6
:1011000090913F0320913C0330913D03281739070C
:1011100024F490933D0380933C03089520913E0373
:1011200030913F0312161306C4F48091400390914E
:101130004103019668E572E00E94FE3090934103FE
:10114000809340032150310930933F0320933E03A5
:10115000FC01E958FC4F8081089580E008952091BA
:101160003903222381F080913A038F5F62E30E946A
:10117000DE3090933A03215020933903E92FF0E0B9
:10118000EB5BFC4F2081822F0895409159025091D2
:101190005A0260915B0270915C028091C80190914B
:1011A000C901A091CA01B091CB0188519C4FAF4FAA
:1011B000BF4F84179507A607B707A0F48091F002E8
:1011C0009091F1029093F3028093F2021092F10257
:1011D0001092F0024093C8015093C9016093CA0174
:1011E0007093CB0108959091A402809130039813DD
:1011F00006C09091A50281E020913103291380E07F
:10120000089580911806882319F0813039F00895E7
:10121000662311F05C9A08955C980895662311F096
:101220005A9A08955A98089580911806882319F0BB
:10123000813089F008958091C501811106C066232F
:1012400011F05F9A08955F980895662311F0429A0D
:10125000089542980895662311F05B9A08955B986B
:10126000089580911806882339F0813081F489B17E
:1012700085FB882780F908958091C501882319F09E
:1012800086B18170089583B186958170089508951F
:101290000F931F93CF93DF938C0160E00E9414099A
:1012A0000000D8E0C0E0CC0F61E0C8010E94140942
:1012B00084EE95E00E9431098111C16060E0C801AF
:1012C0000E941409D15079F700008C2FDF91CF9143
:1012D0001F910F91089580911806882319F081308D
:1012E00069F008958091C501811104C05F98289824
:1012F0005F9A089542984198429A08955B985C9845
:101300005B9A089580911806882319F0813069F05E
:1013100008958091C501811104C05F98289A5F9A51
:1013200008954298419A429A08955B985C9A5B9A14
:1013300008950F931F93CF93DF93EC01162F61E075
:101340000E94010960E0CE010E94140960E0CE0114
:101350000E94010909E0015051F0CE0117FF03C0BE
:101360000E94820902C00E946B09110FF4CF60E055
:10137000CE01DF91CF911F910F910C9414096F77DB
:101380000C9499091F93CF93DF93EC010E94BF093E
:101390000000CE010E944809182F61E0CE010E9492
:1013A00001090000812FDF91CF911F91089563E023
:1013B00084EE95E00E94C2098093D60164E084EE39
:1013C00095E00E94C2098093D50108950F931F9361
:1013D000CF93DF93EC01162F60E00E94140909E01F
:1013E000015051F0CE0117FF03C00E94820902C0D4
:1013F0000E946B09110FF4CF000060E0CE01DF9175
:10140000CF911F910F910C9414091F93CF93DF93E9
:10141000EC01142F60680E9499090000612FCE0131
:101420000E94E60961E0CE01DF91CF911F910C94FB
:1014300001090E94D70941E067E084EE95E00C9431
:10144000050A0E94D709000041E067E084EE95E0BC
:101450000C94050A482F4F736DE784EE95E00C94C9
:10146000050A482F4F736EE784EE95E00C94050A49
:1014700040E86FE084EE95E00E94050A40E262E1F8
:1014800084EE95E00E94050A6FE084EE95E00E94EC
:10149000C20987FFF9CF61E184EE95E00E94C2099D
:1014A000682F70E080E090E00E94D52820E030E0D6
:1014B00040E05FE30E94BB2920E030E040E752E4D7
:1014C0000E94C02708950F931F93CF93DF9300D0FE
:1014D0001F92CDB7DEB78C0166E30E94C2098B83F1
:1014E00048E566E3C8010E94050A66E3C8010E9458
:1014F000C2098A8319828A81883511F481E089833F
:101500004B8166E3C8010E94050A89810F900F9004
:101510000F90DF91CF911F910F9108950F931F931B
:10152000CF93DF93EC0140E062E30E94050A40E0C4
:1015300063E3CE010E94050A00E313E0F801408155
:101540006AE3CE010E94050AF80141816BE3CE01F6
:101550000E94050AF80142816CE3CE010E94050A4F
:10156000F80143816DE3CE010E94050AF801408134
:101570006FE3CE010E94050AF801418160E4CE01CB
:101580000E94050AF801428161E4CE010E94050A29
:10159000F801438162E4CE010E94050A40E063E461
:1015A000CE010E94050A40E064E4CE010E94050AD3
:1015B00040E065E4CE010E94050A40E066E4CE0109
:1015C000DF91CF911F910F910C94050AE0E3F3E0B6
:1015D000ACEEB1E09A968C919A9780839B968C9111
:1015E00081830E94680584EE95E00C948E0ACF9367
:1015F000DF93EC0142E068E00E94050A40E068E009
:10160000CE01DF91CF910C94050A809118068823B2
:1016100019F0813039F008958091C501811104C01D
:101620008CE003C086E001C08DE090E008958091D9
:101630001806882319F0813039F008958091C5018A
:10164000811104C08DE003C087E001C081E190E01A
:10165000089580911806882319F0813089F0089543
:101660008091C501811106C0662311F02D9A08955D
:101670002D980895662311F0439A0895439808958C
:10168000662311F05F9A08955F980895682F84EE9D
:1016900095E00C94290B80911806882319F081306D
:1016A00089F008958091C501811106C0662311F06B
:1016B0002C9A08952C980895662311F02D9A089578
:1016C0002D980895662311F05E9A08955E98089506
:1016D000682F84EE95E00C944B0B809118068823BC
:1016E00019F0813039F008958091C501811104C04D
:1016F00089E003C085E001C08EE090E0089580910C
:101700001806882319F0813039F008958091C501B9
:10171000811104C088E003C084E001C08FE090E044
:10172000089580911806882319F0813039F00895C2
:101730008091C501811104C087E003C083E001C02E
:1017400080E190E0089580911806823008F00895B5
:1017500082E090E0089580911806882329F0813076
:1017600011F482E002C0089584E090E00895809131
:101770001806882319F0813039F008958091C50149
:10178000811104C08AE003C088E001C086E090E0D7
:10179000089580911806882319F0813039F0089552
:1017A0008091C501811104C085E003C089E001C0BA
:1017B00083E090E00895CF93C62F0E94C90B6C2F51
:1017C00070E0CF910C943E2F1F93CF93DF93EC01E9
:1017D000162F80911806811114C08091370188233B
:1017E00081F08091C50181110CC0CE01662321F0EA
:1017F0000E94B70B61E003C00E94B70B60E00E943B
:10180000023080911806813099F480913701882345
:1018100079F0CE01112321F00E94B70B61E003C0E3
:101820000E94B70B60E0DF91CF911F910C940230C2
:10183000DF91CF911F91089510925E0210925D0288
:1018400060E084EE95E00E94DB0B8091ED058F3F18
:1018500059F0E091ED05F0E0EE0FFF1FEC5FFE4F59
:1018600088EE93E091838083809137018823A9F0EB
:101870008091040390910503A0910603B0910703A2
:10188000892B8A2B8B2B49F08091D305811105C0C0
:1018900061E084EE95E00C94E40B089580913F02A2
:1018A00090E020911606211103C025E030E002C02F
:1018B00021E030E08217930714F00C941C0C08957B
:1018C00080911806882329F0813011F48AE002C043
:1018D00008958BE090E0089580911806882319F010
:1018E000813039F00DC08091C50181110AC083E0BB
:1018F0000DC08091EC05882331F08150823028F0B2
:10190000089587E003C08EE001C081E190E0089572
:101910001F920F920FB60F9211242F933F934F9364
:101920005F936F937F938F939F93AF93BF93EF9347
:10193000FF9380918400909185009093D8018093CB
:10194000D70184EE95E00E946C0C0E943130892B07
:1019500059F010928500109284008091D7019091E7
:10196000D80106960E94EF0280911506882351F057
:1019700081E00E94460B8CE390E00E94F82E80E00C
:101980000E94460BFF91EF91BF91AF919F918F9174
:101990007F916F915F914F913F912F910F900FBE6B
:1019A0000F901F9018951F920F920FB60F9211244F
:1019B0002F933F934F935F936F937F938F939F9357
:1019C000AF93BF93EF93FF930E94880CFF91EF9129
:1019D000BF91AF919F918F917F916F915F914F9147
:1019E0003F912F910F900FBE0F901F9018958091EF
:1019F0001806882319F0813039F00FC08091C50195
:101A000081110CC083E00DC08091EC05882341F06A
:101A10008150823028F48EE004C0089587E001C030
:101A200081E190E00895CF93DF93EC010E94050BD4
:101A300061E00E94C62FCE010E94170B61E00E9458
:101A4000C62FCE010E946D0B60E00E94C62FCE0112
:101A50000E947F0B61E00E94C62FCE010E94910B75
:101A600061E00E94C62FCE010E94A30B60E00E949D
:101A7000C62FCE010E94AB0B61E00E94C62FCE01A3
:101A80000E94C90B61E00E94C62FCE010E94910BFB
:101A900061E00E94C62FCE010E94A30B60E00E946D
:101AA000C62FCE010E94AB0B61E00E94C62FCE0173
:101AB0000E94C90B61E00E94C62FCE010E946C0CEF
:101AC00060E00E94C62F80911806813041F4CE015B
:101AD0000E94F70C60E0DF91CF910C94C62FDF914C
:101AE000CF910895CF93DF93EC010E946C0C61E0DD
:101AF0000E94C62F80911806813061F4CE010E94A9
:101B0000F70C61E00E94C62FCE010E94F70C60E046
:101B10000E9402308091C5018823F1F061E083E0EA
:101B20000E94C62F61E085E00E94C62F61E086E03A
:101B30000E94C62F61E089E00E94C62F61E08AE022
:101B40000E94C62F61E08BE00E94C62F61E08CE00E
:101B5000DF91CF910C94C62FDF91CF910895CF9351
:101B6000DF93EC018091C501882321F08091180654
:101B7000813031F4CE010E94B70B61E00E94C62F84
:101B8000CE010E94600C60E00E94C62FCE010E9430
:101B90006C0C60E00E94C62F80911806813071F4B1
:101BA000CE010E94F70C61E00E94C62FCE010E9478
:101BB000F70C60E0DF91CF910C940230DF91CF9170
:101BC0000895CF93DF93EC010E946C0C62E00E94B9
:101BD000C62F80911806813031F4CE010E94F70C97
:101BE00062E00E94C62FDF91CF9108950E946C0C95
:101BF0000E94313021E0892B09F420E0822F0895E2
:101C0000CF92DF92EF92FF920F931F93CF93DF93C8
:101C10000E948B2E6B017C0184EE95E00E94E10D09
:101C200084EE95E00E94F60D182FC0E0D0E084EE1F
:101C300095E00E94F60D082F181321960E948B2E16
:101C4000102FDC01CB018C199D09AE09BF09C29789
:101C5000A105B10560F3CE01DF91CF911F910F91E6
:101C6000FF90EF90DF90CF90089580911806882321
:101C700019F0813089F008958091C501882331F0F1
:101C8000662311F05F9A08955F980895662311F016
:101C90005B9A08955B9808958091EC05811106C0C8
:101CA000662311F0409A089540980895662311F034
:101CB000439A0895439808951F920F920FB60F927A
:101CC00011242F933F934F935F936F937F938F9341
:101CD0009F93AF93BF93EF93FF9380914403813021
:101CE000A1F480911306811102C060E001C061E09F
:101CF00084EE95E00E94350E82E09AE9909385008B
:101D000080938400109244033DC09091EE05809131
:101D10006102981730F410926102109260021092E2
:101D20005F029091EE0580916102981303C080E0FC
:101D30009DE711C0E0916102F0E0E350FA4FE081CD
:101D4000F0E0EE0FFF1FEA5FFE4F2081318186E950
:101D50009EE9821B930B909385008093840081E021
:101D60008093440380911306811102C061E001C099
:101D700060E084EE95E00E94350E809161028F5FF5
:101D800080936102FF91EF91BF91AF919F918F91ED
:101D90007F916F915F914F913F912F910F900FBE67
:101DA0000F901F9018952091180621110BC02091BB
:101DB000C501211107C00E94600C0E94313021E052
:101DC000892B09F020E0822F0895CF92DF92EF92C5
:101DD000FF92CF93DF936A017B01CB01BA0120E12F
:101DE00037E240E050E00E943431E9016897C701D2
:101DF000B6012AE030E040E050E00E943431690151
:101E00007A0180ECC81A8DE5D80AE108F10828EEBD
:101E100033E0C29FC001C39F900DD29F900D11244B
:101E2000C81AD90AE108F10886E0CC0CDD1CEE1CCA
:101E3000FF1C8A95D1F74C2F405C65E784EE95E056
:101E40000E94050A7727F7FC7A956F2D5E2D4D2DA0
:101E500066E784EE95E00E94050A4C2D67E784EE64
:101E600095E0DF91CF91FF90EF90DF90CF900C94B1
:101E7000050A462F69E70C94050A80912D018F5FB2
:101E800080932D0190E020912B0130912C0182173D
:101E9000930710F010922D01E0912D01F0E0EA5D22
:101EA000FE4F608184EE95E00C94390F0F931F93E1
:101EB0004091590250915A0260915B0270915C020C
:101EC0008091450290914602A0914702B09148024C
:101ED0008A019B01081B190B2A0B3B0B00331105D0
:101EE0002105310550F18091D9059091DA05A09135
:101EF000DB05B091DC050196A11DB11D8093D905CC
:101F00009093DA05A093DB05B093DC05409345027E
:101F100050934602609347027093480260E084EE5B
:101F200095E00E94DB0B84EE95E00E943D0F84EE6D
:101F300095E01F910F910C943D0F1F910F91089503
:101F4000CF93DF93EC010E94D70940E066E0CE0119
:101F50000E94050A41E067E0CE010E94050A4FE7B2
:101F600069E0CE010E94050A45E06AE0CE010E94C8
:101F7000050A8091EC05823050F442E16BE0CE011D
:101F80000E94050A45E16CE0CE010E94050A80919D
:101F9000EC05823051F445E16BE0CE010E94050A68
:101FA00042E16CE0CE010E94050A4DEF6DE0CE01EA
:101FB0000E94050A40E06EE0CE010E94050A40E062
:101FC00060E7CE010E94050A44E46DE1CE010E9463
:101FD000050A80913603813009F49BC008F45BC088
:101FE000833009F0DCC041E86CE1CE010E94050AB3
:101FF00040E660E2CE010E94050A41E061E2CE01C6
:102000000E94050A45E562E2CE010E94050A45E507
:1020100063E2CE010E94050A41E164E2CE010E9422
:10202000050A47E565E2CE010E94050A44E46AE23A
:10203000CE010E94050A48E26CE2CE010E94050A28
:102040004AE06DE2CE010E94050A48E26EE2CE014E
:102050000E94050A40E26EE6CE010E94050A40E0B9
:102060006FE6CE010E94050A40E06FE1CE010E94BA
:10207000050A40EC68E5CE010E94050A4CE060E7E5
:10208000CE010E94050A41E261E7CE010E94050AE5
:102090004EE262E781C045E06CE1CE010E94050A94
:1020A00045E460E2CE010E94050A41E061E2CE0112
:1020B0000E94050A47ED62E2CE010E94050A4CED3E
:1020C00063E2CE010E94050A43E064E2CE010E9471
:1020D000050A48EB65E2CE010E94050A4EE16AE27C
:1020E000CE010E94050A4EE06EE6CE010E94050A6E
:1020F0004FEB6FE6CE010E94050A43E261E7CE0195
:102100000E94050A4EE262E7CE010E94050A40E8FD
:1021100042C04AE86CE1CE010E94050A40E660E256
:10212000CE010E94050A41E061E2CE010E94050A4B
:1021300045E562E2CE010E94050A45E563E2CE0173
:102140000E94050A42E064E2CE010E94050A4DEABF
:1021500065E2CE010E94050A4EE16AE2CE010E94CC
:10216000050A40E26EE6CE010E94050A40E06FE6F5
:10217000CE010E94050A43E261E7CE010E94050AF2
:1021800048EC62E7CE010E94050A43E06FE1CE0110
:102190000E94050A40EC68E5CE010E94050A4CE861
:1021A00060E3CE010E94050A43EF62E3CE010E9484
:1021B000050A42E463E3CE010E94050A47E064E3B6
:1021C000CE010E94050A40E46EE3CE010E94050A9A
:1021D00045E769E6CE010E94050A40E063E7CE01CB
:1021E0000E94050A40E064E7CE010E94050A43E52B
:1021F00065E7CE010E94050A4DE766E7CE010E9421
:10220000050A40E067E7CE010E94050A60E084EE1F
:1022100095E00E94390F4FE06AE7CE010E94050A5F
:102220008AE090E00E942A0A8AE090E00E94310A47
:102230004FE16DE684EE95E00E94050ACE01DF9144
:10224000CF910C948E0A61E30E94C20991E080FF55
:1022500090E0892F08956BE40C94C20966E284EE45
:1022600095E00E94C209682F70E080E090E00E9433
:10227000D52823E333E343EF5FE30E942D2820E0DA
:1022800030E042E053E40E94C0270895CF93DF93EB
:10229000C0912D01D0E084EE95E00E942E11CC0F6C
:1022A000DD1FCC0FDD1FC45EDC4F688379838A831A
:1022B0009B83DF91CF910895462F6EE384EE95E0E6
:1022C0000C94050ACF93DF93EC0141E067E00E9494
:1022D000050A43E068E0CE010E94050A40E068E09C
:1022E000CE010E94050A44E26EE7CE010E94050A73
:1022F00045E067E0CE010E94050A80913E028823F6
:1023000021F060E4CE010E945C11000042E065E033
:10231000CE010E94050A84EE95E00E94D709109232
:102320000E0610920D06DF91CF910895809159020B
:1023300090915A02A0915B02B0915C0240914902D7
:1023400050914A0260914B0270914C02841B950B94
:10235000A60BB70B893E9340A105B10590F1809182
:10236000400281112EC081E0809340021092370319
:1023700080913E02882361F0109238031092E705A5
:1023800084EE95E00E9462110E94D0020E94AA048D
:102390008091DD0581110E941C0C60E084EE95E0C7
:1023A0000E94DB0B8091ED058F3F59F0E091ED0528
:1023B000F0E0EE0FFF1FEC5FFE4F88EE93E091839D
:1023C000808308958F929F92AF92BF92CF92DF92B7
:1023D000EF92FF920F931F93CF93DF9384EE95E0DC
:1023E0000E942B1190913201992311F0813408F051
:1023F00080E48090320290903302A0903402B0903A
:102400003502C82FD0E0BE010D2E000C880B990BB1
:102410000E94D7282DEC3CEC4CE45DE30E94BB29E4
:102420006B017C0123E333E343E75FE3C501B401C0
:102430000E94BB299B01AC01C701B6010E94C127C4
:10244000609332027093330280933402909335028A
:102450006FE784EE95E00E94990900E010E084EEB9
:1024600095E00C171D074CF40E944809F801EE5541
:10247000FD4F80830F5F1F4FF2CFDF91CF911F91F0
:102480000F91FF90EF90DF90CF90BF90AF909F9013
:102490008F900C946211CF93DF93EC010E94210A7C
:1024A00062E370E080E090E00E94BC2ECE010E94CA
:1024B00062110000DF91CF910895CF93DF93EC017B
:1024C0006CE00E94C209811118C0CE010E94A00FC9
:1024D00040E857E966E070E0CE010E94E50EE09129
:1024E0002D01F0E0EA5DFE4F6081CE010E94390FC0
:1024F000CE01DF91CF910C944B12DF91CF910895D3
:102500008F929F92AF92BF92CF92DF92EF92FF9203
:102510000F931F93CF93DF9300D000D000D0CDB79F
:10252000DEB71E821D8281E08093380384EE95E041
:102530000E94190A84EE95E00E94F70A84EE95E065
:102540000E94F70A47E064E384EE95E00E94050AE2
:102550008091DD05882369F080913201882329F07C
:102560008091630290E0049602C080E490E09E8334
:102570008D8380913E02882369F080913201882307
:1025800029F08091630290E0049602C080E490E01C
:102590009E838D8381E090E09093D4018093D3015A
:1025A0006D817E8184EE95E00E945C118090360200
:1025B00090903702A0903802B09039026D817E81F0
:1025C000072E000C880B990B0E94D7282DEC3CECB1
:1025D0004CE45DE30E94BB296B017C0123E333E300
:1025E00043E75FE3C501B4010E94BB299B01AC0135
:1025F000C701B6010E94C12760933602709337026B
:1026000080933802909339020E94972E69837A83CF
:102610008B839C8300E010E08D819E810817190751
:1026200064F4F801EE59FD4F40816FE784EE95E0C8
:102630000E94050A0F5F1F4FEFCF0E94972E09815E
:102640001A812B813C81DC01CB01801B910BA20BF9
:10265000B30B89839A83AB83BC8344E065E084EE4B
:1026600095E00E94050A84EE95E00E94D70949E0B2
:1026700067E084EE95E00E94050A84EF91E00E94F5
:10268000F82E26960FB6F894DEBF0FBECDBFDF91B1
:10269000CF911F910F91FF90EF90DF90CF90BF905F
:1026A000AF909F908F9008956BE284EE95E00C942C
:1026B000C20961E384EE95E00E94C20983FB88278A
:1026C00080F9089561E30E94C20991E084FF90E0DF
:1026D000892F08958F929F92AF92BF92CF92DF92EF
:1026E000EF92FF920F931F93CF93DF9384EE95E0C9
:1026F0000E946213882309F4C4C08091590290910A
:102700005A02A0915B02B0915C0240913A02509152
:102710003B0260913C0270913D028C019D01041BC3
:10272000150B260B370B0F3111052105310508F468
:10273000A8C080933A0290933B02A0933C02B093CE
:102740003D0266E284EE95E00E94C209682F70E0C7
:1027500070935E0260935D026933710540F0683FDB
:10276000710510F067EF70E080E090E004C069E36D
:1027700070E080E090E01F921F921F922FEF2F9346
:10278000A12CB12C650117EFE12EF12C00E010E037
:1027900029E330E040E050E00E945A3084EE95E0BA
:1027A0000E94DB0B60915D0270915E020F900F90B2
:1027B0000F900F906933710540F0683F710510F07C
:1027C00067EF70E080E090E004C069E370E080E0D3
:1027D00090E01F921F922FE02F9320EA2F9320ED7D
:1027E000A22E27E0B22EC12CD12C17EFE12EF12C16
:1027F00000E010E029E330E040E050E00E945A3071
:102800006B017C0123E333E343E75FE36091E80579
:102810007091E9058091EA059091EB050E94BB2932
:102820004B015C01B60180E090E00E94D5282DECC0
:102830003CEC4CE45DE30E94BB299B01AC01C5016B
:10284000B4010E94C1276093E8057093E905809365
:10285000EA059093EB050000C0912D01D0E084EED5
:1028600095E00E942E11CC0FDD1FCC0FDD1FC85F3D
:10287000DC4F688379838A839B830F900F900F903E
:102880000F90DF91CF911F910F91FF90EF90DF900C
:10289000CF90BF90AF909F908F900895CF93DF938C
:1028A000C2E6D2E083E4888381E089830E948C03BE
:1028B00086E48C838091F4029091F502A091F60257
:1028C000B091F7020196A11DB11D8093F40290937F
:1028D000F502A093F602B093F702DF91CF9108952D
:1028E00083E78093620288E1809363020E948C03F5
:1028F00065E070E020E030E020313105B4F5A90159
:102900004F5F5F4FF901EE0FFF1FEA5FFE4F8081BF
:10291000918196958795845F9140E4E0880F991F97
:10292000EA95E1F7FB01EF59FD4F9083DB01AE59CA
:10293000BD4F8C9340315105B1F02E5F3F4F440F96
:10294000551FFA01EA5FFE4F808191819695879528
:10295000845F91404C919F70942B9C93FB01ED59A7
:10296000FD4F808302C020E130E06D5F7F4F20315A
:10297000310514F28091F8029091F902A091FA02C7
:10298000B091FB020196A11DB11D8093F8029093B6
:10299000F902A093FA02B093FB020895FF920F93FD
:1029A0001F93CF93DF93EC0182E4809362028091C6
:1029B000DD05882329F0CD33D10514F0CCE3D0E038
:1029C00080913E02882329F0CD33D10514F0CCE369
:1029D000D0E0C09363020E948C03F12C8F2D90E015
:1029E0008C179D076CF48C010C5F1F4F83EE95E0F4
:1029F0000E948E08F801EE59FD4F8083F394EECFCC
:102A00008091FC029091FD02A091FE02B091FF0224
:102A10000196A11DB11D8093FC029093FD02A0932D
:102A2000FE02B093FF02CE01DF91CF911F910F9173
:102A3000FF90089526E040E051EE60E070E089EDFF
:102A400096E00E94EE2AE0ECF0E0808182608083D4
:102A500082E28093C400089510926C0010926D0081
:102A6000E8E6F0E080818B7F808380818D7F8083AA
:102A7000089584EE95E00E94720D0E942C1526E0C8
:102A800040E05BE460E070E089ED96E00E94EE2AB1
:102A90000E94D0020E94AA044FE16DE684EE95E008
:102AA0000E94050A84EE95E00E94A00F40E857E9D5
:102AB00066E070E084EE95E00E94E50EE0912D0165
:102AC000F0E0EA5DFE4F608184EE95E00E94390FF0
:102AD00084EE95E00E944B12789484EE95E00E947B
:102AE0003D0F0E948B2E6093590270935A0280937F
:102AF0005B0290935C026093490270934A02809358
:102B00004B0290934C02609345027093460280936F
:102B1000470290934802089565E870E089ED96E0D9
:102B20000E94722C6BE770E089ED96E00E94412CC8
:102B30008091DD05811103C06AE471E002C067E4A1
:102B400071E089ED96E00E94652C63E971E089ED02
:102B500096E00E94842C62E770E089ED96E00E9486
:102B6000412C8091C501811103C068E670E002C06C
:102B70006BE670E089ED96E00E94722C4091E001D6
:102B80005091E1016091E2017091E3012AE030E0AF
:102B900089ED96E00C942F2E84EE95E00E94AF0D07
:102BA0000E941A150E94190384EE95E00E94A00F5E
:102BB00040E857E966E070E084EE95E00E94E50E9B
:102BC0004FE16DE684EE95E00E94050A789460E09E
:102BD00084EE95E00E94E40B84EE95E00E94600C88
:102BE00061E00E94023064E670E080E090E00E94C4
:102BF000BC2E84EE95E00E946C0C61E00E940230D5
:102C000010922F0110922E0184EE95E00E94621125
:102C10000E948B2E6093590270935A0280935B023C
:102C200090935C0260935502709356028093570212
:102C30009093580208950E94D7040E9478050E943C
:102C400006050E941D050C94240561E084EE95E0C4
:102C50000E94E40B6CE370E080E090E00E94BC2EE8
:102C600060E084EE95E00E94E40B6CE370E080E0AD
:102C700090E00C94BC2E61E084EE95E00E94E40BA1
:102C800064EB70E080E090E00E94BC2E60E084EE97
:102C900095E00E94E40B6CE370E080E090E00C941F
:102CA000BC2E64EB70E080E090E00C94BC2E909120
:102CB00012069923B9F0843589F0883549F08235B8
:102CC00079F40E9425160E943B160E94251608C022
:102CD0000E943B160E9425160E9425160E943B1654
:102CE0000C94511608950E944B07882351F10E94BD
:102CF0006405823551F0843581F4109234011092CC
:102D00003E0281E08093DD050BC01092340181E02A
:102D100080933E021092DD0503C081E08093340170
:102D20009091EF0581E0913009F080E080933701C8
:102D30009091F00581E0913009F080E080931306D6
:102D400003C081E08093340180913401882389F0AD
:102D50000E94000E9C0181E0263031050CF480E0D9
:102D60008093DD0591E0263031050CF090E09093E2
:102D70003E0280911206882361F08091DD05882350
:102D800011F084E501C082E50E94571688E50E9493
:102D9000571610923803109237038091DD05811188
:102DA0000E94CC1580913E0281110E9439158091BC
:102DB0001606882369F08091DD05811103C068E55E
:102DC00071E002C06DE471E089ED96E00C94842C12
:102DD00008950E941B1684EE95E00E94130D0C943A
:102DE0007316EF92FF920F931F93CF93DF9320916F
:102DF00037012223E9F18B017C01C0E0D0E0CE1540
:102E0000DF051CF0C0E0D0E018C061E084EE95E082
:102E10000E94E40B6EE170E080E090E00E94BC2E26
:102E200060E084EE95E00E94E40B6EE170E080E0EB
:102E300090E00E94BC2E2196E2CFC017D107C4F4C7
:102E400061E084EE95E00E94E40B6AE570E080E0CA
:102E500090E00E94BC2E60E084EE95E00E94E40BBE
:102E60006EE170E080E090E00E94BC2E2196E5CFFC
:102E7000DF91CF911F910F91FF90EF900895CF9325
:102E8000DF93D62FC42FFC01608187E896E00E9473
:102E900035276D2F87E896E00E94E8266C2F87E89B
:102EA00096E00E94E82687E896E0DF91CF910C94A7
:102EB000B92740E060E00C943F17CF93DF93EC011B
:102EC00087E896E00E942727CE01DF91CF910C94EE
:102ED0005917FF920F931F93CF93DF93C62FF42EB2
:102EE000152F022FD32FFC01608187E896E00E9406
:102EF0003527F4E0CF9FB00111246A5F7F4F87E848
:102F000096E00E94E8266F2D712F87E896E00E94D8
:102F1000C902612F70E087E896E00E94C902602F25
:102F20007D2F87E896E00E94C9026D2F70E087E848
:102F300096E00E94C902000087E896E0DF91CF91F9
:102F40001F910F91FF900C94B9276F927F928F92EF
:102F50009F92AF92BF92CF92DF92EF92FF920F9328
:102F60001F93CF93DF9352EA852E51E0952EC0E058
:102F7000D0E062E0762E74E6672EFE01EE0FFF1FB2
:102F8000EA5FFE4F60817181683E83E078075CF004
:102F90006938E3E17E0714F068E873E1072E000C5E
:102FA000880B990B04C068EE73E080E090E01F92FC
:102FB0001F927F926F922CE7A22EB12CC12CD12CA4
:102FC00018E8E12E13E1F12E00E010E028EE33E0E6
:102FD00040E050E00E945A306B017C010F900F904E
:102FE0000F900F90F401808191818C159D0559F00F
:102FF000960140E050E06C2F85EE95E00E94691745
:10300000F401D182C0822196F2E08F0E911CC03172
:10301000D10509F0B2CFDF91CF911F910F91FF90B1
:10302000EF90DF90CF90BF90AF909F908F907F9068
:103030006F900895809138018823A9F08091330121
:10304000882389F080913E02882369F08091C6012F
:103050009091C70101969093C7018093C60185EEB8
:1030600095E00E94A5178091590290915A02A09173
:103070005B02B0915C0280934D0290934E02A0934C
:103080004F02B09350020895FF920F931F93CF9376
:10309000DF9300D0CDB7DEB78C0180911606882370
:1030A00051F060E970E089ED96E00E94722C89EDA4
:1030B00096E00E94CC2A1092C3011092C201FF2414
:1030C000F394F09218061092C501C8010E94130DE6
:1030D00066E3C8010E94C2098A8348E566E3C80125
:1030E0000E94050A66E3C8010E94C20989834A81D9
:1030F00066E3C8010E94050A8981883521F481E0D0
:103100008093C4016BC010921806F092C501C801EB
:103110000E94130DC8010E94630A8111F0CF109222
:10312000C501C8010E94130DC8010E94630A8111E4
:10313000E6CFC8010E94050B60E00E94C62FC801BF
:103140000E94170B60E00E94C62FC8010E946D0B01
:1031500060E00E94C62FC8010E947F0B60E00E94C1
:10316000C62FC8010E94910B60E00E94C62FC801C3
:103170000E94A30B60E00E94C62FC8010E94AB0B07
:1031800060E00E94C62FC8010E94C90B60E00E9447
:10319000C62FC8010E94B70B60E00E94C62F809125
:1031A000C2019091C30101969093C3018093C20123
:1031B00062E370E080E090E00E94BC2E8091C2014A
:1031C0009091C301853691054CF061E0C8010E94E1
:1031D000290B60E0C8010E944B0BFFCF0F900F90AE
:1031E000DF91CF911F910F91FF90089580E480931C
:1031F000E50584EE95E00E9444189091DD0581E09C
:10320000892780933E020895CF93C82F89ED96E0D9
:103210000E94532B181619062CF089ED96E00E9497
:10322000CC2AF4CF6C2F89ED96E00E94852A40913C
:1032300000015091010160910201709103018C2FF6
:103240000E94510460930001709301018093020178
:10325000909303018091CE019091CF0101969093BC
:10326000CF018093CE01CF910895CF93C82F8FE2E5
:103270000E94041986E70E9404198AE20E94041938
:1032800084E20E9404198C2F0E9404198091E601A7
:10329000CF910C9404198091EC010E943519809112
:1032A000ED0190E090932C0180932B01AFEEB1E003
:1032B000E6E2F1E08D91819381E0EB32F807D1F7FE
:1032C0000C9438050E942E040E944B190E94600540
:1032D0000E94E60A0E94B4030E94F0030E94FA03CF
:1032E0000E9411040E9417040E9495070E944B0738
:1032F00080930F060C94E916CF92DF92EF92FF9223
:103300000F931F93CF93DF938C017B0189ED96E0A0
:103310000E94532B8E159F052CF489ED96E00E9498
:10332000CC2AF4CFE801CE01801B910B8E159F05AE
:1033300024F56E01699189ED96E00E94852A4091FD
:103340000001509101016091020170910301F601A9
:1033500080810E9451046093000170930101809369
:103360000201909303018091CE019091CF010196CB
:103370009093CF018093CE01D6CFDF91CF911F9153
:103380000F91FF90EF90DF90CF900895EF92FF9212
:103390000F931F93CF93DF9300D000D0CDB7DEB74C
:1033A0000E942E048091EC010E94351980912B011E
:1033B0000E94041956E2E52E51E0F52E00E010E0DF
:1033C00080912B0190912C010817190718F4F7012F
:1033D000808101C080E00E9404190F5F1F4FFFEF42
:1033E000EF1AFF0A0530110559F70CE113E040E32D
:1033F000E42E43E0F42EF80181919191A191B191D5
:103400008F0189839A83AB83BC8364E070E0CE0133
:1034100001960E947C19E016F10669F708E013E0B6
:103420003CE1E32E33E0F32EF80181919191A191DB
:10343000B1918F0189839A83AB83BC8364E070E090
:10344000CE0101960E947C19E016F10669F700E0B2
:1034500010E0C801880F991F9C012A5F3E4F790137
:10346000F90180819181892F0E940419F7018081DF
:1034700091810E9404190F5F1F4F0031110549F718
:103480008091040390910503A0910603B091070376
:1034900089839A83AB83BC8364E070E0CE0101969C
:1034A0000E947C198091000390910103A091020376
:1034B000B091030389839A83AB83BC8364E070E09B
:1034C000CE0101960E947C198091FC029091FD0230
:1034D000A091FE02B091FF0289839A83AB83BC83E3
:1034E00064E070E0CE0101960E947C198091F802A0
:1034F0009091F902A091FA02B091FB0289839A831C
:10350000AB83BC8364E070E0CE0101960E947C191D
:103510008091F4029091F502A091F602B091F70229
:1035200089839A83AB83BC8364E070E0CE0101960B
:103530000E947C190E94380A6093E0017093E101B7
:103540008093E2019093E30169837A838B839C8368
:1035500064E070E0CE0101960E947C1984EE95E053
:103560000E9454130E94041980913E030E94041982
:1035700080913F030E94041984E090E00E94A70418
:103580000E94041985E090E00E94A7040E9404199B
:1035900080915D020E9404198091DD05811102C0B5
:1035A00082E501C084E50E9404190E9464050E941E
:1035B000041980913003909131039A83898362E0EA
:1035C00070E0CE0101960E947C1964E070E0CE01AB
:1035D00001960E947C1964E070E0CE0101960E9481
:1035E0007C19809140020E9404190E944B0780932D
:1035F0000F060E9404190DEF15E08DE0E82E86E01D
:10360000F82EF80181918F010E940419E016F1064D
:10361000C1F78091EC050E94041900E010E0F80168
:10362000E351FA4F80810E9404190F5F1F4F003150
:103630001105A9F70E943E046093DA017093DB0143
:103640008093DC019093DD018091DA019091DB01A0
:10365000A091DC01B091DD0189839A83AB83BC83A7
:1036600064E070E0CE0101960E947C190F900F90EB
:103670000F900F90DF91CF911F910F91FF90EF90DE
:103680000895CF92DF92EF92FF92CF93DF938091D4
:10369000EC01833509F467C0883509F4C2C082356E
:1036A00009F00BC18091EA019091EB010A9708F4AF
:1036B00004C10E942E048091EC010E94351981E022
:1036C0008093D8058091590290915A02A0915B0293
:1036D000B0915C0288519C4FAF4FBF4F8093D4058F
:1036E0009093D505A093D605B093D7056CE184EEF1
:1036F00095E00E94C2098093DF0169E784EE95E0BE
:103700000E94C2098093DE0147E26CE184EE95E0FD
:103710000E94050AE12CF12C6E2D84EE95E00E94AA
:10372000390F61E070E080E090E00E94BC2E66E21C
:1037300084EE95E00E94C2090E9404198FEFE81AF6
:10374000F80AE11481E0F80639F74091DF016CE1F5
:1037500084EE95E00E94050A6091DE0184EE95E01A
:103760000E94390F5AC08091EA019091EB010797AE
:1037700008F4A3C0E091EE01F0E0BF016D5F7F4F60
:10378000E451FE4F848190E0A0E0B0E0CC24D82E3C
:10379000E92EFA2E9581892F90E0A0E0B0E0DC01BF
:1037A000992788278C0D9D1DAE1DBF1DEB01C451AF
:1037B000DE4F2881820F911DA11DB11DC680D12C25
:1037C000E12CF12CFC2CEE24DD24CC24C80ED91ED7
:1037D000EA1EFB1E41E08CEE91E00E947504C616C5
:1037E000D706E806F906C9F481E08093D3058091F5
:1037F000590290915A02A0915B02B0915C028851EB
:103800009C4FAF4FBF4F8093CF059093D005A093AF
:10381000D105B093D2050E94C6191092E40181E04F
:103820004DC08091EA019091EB018430910508F43C
:1038300044C0E091EE01F0E09F01295F3F4F821705
:103840009307D8F1BF016D5F7F4FE451FE4F848134
:1038500090E0A0E0B0E0CC24D82EE92EFA2E95819D
:10386000892F90E0A0E0B0E0DC01992788278C0D3B
:103870009D1DAE1DBF1DEB01C451DE4F2881820F7F
:10388000911DA11DB11DC680D12CE12CF12CFC2C69
:10389000EE24DD24CC24C80ED91EEA1EFB1E41E016
:1038A0008CEE91E00E947504C616D706E806F9066C
:1038B00009F0B3CF0E946219B0CF80E0DF91CF91C1
:1038C000FF90EF90DF90CF900895CF93C091E501E6
:1038D000CC2329F12091EA013091EB012634310506
:1038E00060F4A9014F5F5F4F5093EB014093EA01F1
:1038F000F901E451FE4F808306C01092E501109259
:10390000EB011092EA010E94411BC82F882349F164
:103910001092E5011092EB011092EA0159C020913A
:10392000E7013091E801F901E359FE4F90818913D5
:103930001AC02F5F3F4F3093E8012093E701809139
:103940000401909105012817390759F481E080930B
:10395000E5011092E8011092E7011092EB0110923C
:10396000EA01C1E035C02130310529F46FE283EE70
:1039700095E00E9445088091E7019091E801029747
:1039800051F46FE283EE95E00E94450866E783EE0E
:1039900095E00E9445088091E7019091E801039726
:1039A00079F46FE283EE95E00E94450866E783EEC6
:1039B00095E00E9445086AE283EE95E00E94450882
:1039C0001092E8011092E7011092E5011092E401D3
:1039D0008C2FCF9108950F931F93CF938C01C62FF7
:1039E000862F0E94651C811107C06C2FC801CF91E2
:1039F0001F910F910C944508CF911F910F9108953D
:103A000089ED96E00E94532B1816190684F48091D4
:103A10003903882361F0809114068111F1CF0E944F
:103A2000AF08682F89ED96E00E94852AE9CF0895B6
:103A3000382F20913903223380F480913B038F5F2C
:103A400062E30E94DE3090933B032F5F20933903A3
:103A5000E92FF0E0EB5BFC4F30830C94001DCF931B
:103A6000DF930E94972E1092E90184EE95E00E9468
:103A7000D7090E94E2118091F0029091F102019623
:103A80009093F1028093F0020E94F308882309F4D6
:103A900053C081E0809337031092400260E084EECF
:103AA00095E00E94E40B2091A3028091E80290919E
:103AB000E902820F911D9093E9028093E8028091C0
:103AC000A202823461F5C0E0D0E08091A30290E0D0
:103AD000C817D90744F4FE01EA55FD4F80810E94C2
:103AE000181D2196F2CF8091040390910503A091B7
:103AF0000603B09107030196A11DB11D8093040335
:103B000090930503A0930603B09307038091EA0204
:103B10009091EB0201969093EB028093EA0280E091
:103B200090E0FC01EE55FD4F108201968034910526
:103B3000C1F710923F020CC080911606882341F015
:103B400068E970E089ED96E0DF91CF910C94722CDA
:103B5000DF91CF910895FF920F931F93CF93DF933F
:103B600081E0809337031092400280915902909136
:103B70005A02A0915B02B0915C028093490290933B
:103B80004A02A0934B02B0934C028091A20283356B
:103B900009F05DC08091EC029091ED020196909346
:103BA000ED028093EC026091E8057091E905809147
:103BB000EA059091EB050E949F2844E050E0E0E088
:103BC000F0E0DA01AE55BD4F2C91DA01AD55BD4F95
:103BD0008C9130E0322F2227280F311DC901895ED8
:103BE00093408F399F40D0F4A091ED05CF01880F0D
:103BF000991FAF3F69F0A091ED05B0E0AE17BF0788
:103C000039F4DC01AA5FBE4F11967C936E9306C017
:103C1000DC01AA5FBE4F11963C932E9331964E5F06
:103C20005F4F4432510569F6809100039091010382
:103C3000A0910203B09103030196A11DB11D8093D1
:103C4000000390930103A0930203B09303038091B8
:103C5000A202803309F069C08091EC029091ED02DC
:103C600001969093ED028093EC02A091300144E024
:103C700050E060E070E0E8EBFBE0EA01CE55DD4F9C
:103C80008881B0E18B9F90011124EA01CD55DD4F71
:103C9000888190E0B4E095958795BA95E1F7822BFD
:103CA000932B8C509E4F880F991FAA2331F09C01B3
:103CB000285E3340213A3F40E8F42091D901211198
:103CC000FCCFB091ED059B01220F331FBF3F21F4C4
:103CD000E901CA5FDE4F0CC00091ED0510E0E9017B
:103CE000CA5FDE4F6017710719F4F983E88302C0D9
:103CF000998388836F5F7F4F4D5F5F4F44335105DA
:103D000009F0BBCF8091000390910103A0910203C1
:103D1000B09103030196A11DB11D80930003909300
:103D20000103A0930203B09303038091A20283379F
:103D300009F099C08091EC029091ED020196909368
:103D4000ED028093EC02F09030016091E8057091F3
:103D5000E9058091EA059091EB050E949F2821E0FA
:103D600030E044E050E0C9010197FA01EE55FD4F03
:103D7000A081D0E1AD9F80011124FA01ED55FD4FE6
:103D8000A081B0E0D4E0B595A795DA95E1F7A02B36
:103D9000B12BAC50BE4FAA0FBB1FFF2031F08D01DD
:103DA000085E1340013A1F40E0F41091D90111114F
:103DB000FCCF1091ED05880F991F1F3F69F000910E
:103DC000ED0510E00217130739F4DC01AA5FBE4FBE
:103DD00011967C936E9305C08A5F9E4FEC01B98368
:103DE000A88380818F7090E0982F8827FA01EC5586
:103DF000FD4FE0818E2B8C509E4F880F991FFF2026
:103E000009F4DBC0FC01E85EF340E13AFF4008F44E
:103E1000D4C00EC0A091ED05B0E089010F5F1F4F27
:103E2000EA5FFE4FA017B10709F0D1C0718360832C
:103E30004D5F5F4F2E5F3F4F4C31510509F093CFDF
:103E40008091000390910103A0910203B0910303BC
:103E50000196A11DB11D8093000390930103A093CF
:103E60000203B09303038091A202833431F4809162
:103E7000A602863411F40E94A3078091A202823424
:103E800009F0BEC08091EA029091EB0201969093F6
:103E9000EB028093EA028091A302882321F08091B3
:103EA0001606811197C000E010E08091A30290E017
:103EB0000817190794F4F801EA55FD4FC08189ED00
:103EC00096E00E94532B0F97D4F36C2F89ED96E068
:103ED0000E94852A0F5F1F4FE8CFC091A302CC5FDD
:103EE00084EE95E00E942B11C81314C08091040346
:103EF00090910503A0910603B09107030196A11DBF
:103F0000B11D8093040390930503A0930603B0931F
:103F1000070376C0D091300120E030E06C2F70E0D4
:103F2000DB01AE55BD4F8C91E0E18E9FA0011124C5
:103F3000DB01AD55BD4F8C9190E0F4E095958795F0
:103F4000FA95E1F7842B952B8C509E4F880F991F83
:103F5000DD2331F0AC01485E5340413A5F4060F4EC
:103F60004091D9014111FCCFA901440F551F4A5F6F
:103F70005E4FFA0191838083A9014F5F5F4F8C915F
:103F80008F7090E0982F8827DB01AC55BD4F6C9166
:103F9000862B8C509E4F880F991FDD2341F1BC0169
:103FA000685E7340613A7F4010F12E5F3F4FCD5FF6
:103FB0002031310509F0B2CF99CFA091ED05F9017B
:103FC000EE0FFF1FAF3F09F025CFEA5FFE4F918351
:103FD00080832ECF63E971E089ED96E00E94842C06
:103FE00063E971E089ED96E00E94842C5CCF440F78
:103FF000551FDA01AA5FBE4F11969C938E93D5CFC1
:10400000DF91CF911F910F91FF9008950F931F9310
:10401000CF93DF93EC0189ED96E00E94282A8C0172
:104020001816190674F080913E0390913F0386356F
:104030009240ECF1CE01DF91CF911F910F910C9442
:104040008E08809116068823D9F04091590250912C
:104050005A0260915B0270915C022AE030E089EDC7
:1040600096E00E94DF2C6BEA70E089ED96E00E94FA
:10407000412C4AE050E0B80189ED96E00E94412DC4
:1040800080913E0390913F038635924064F689ED1E
:1040900096E00E94422A682FCE010E94EB1C89ED17
:1040A00096E00E94282A1816190654F3BCCFDF9117
:1040B000CF911F910F910895CF93DF9300D0CDB78B
:1040C000DEB78CE4882E912CA12CB12C11E002E0FB
:1040D0000E948B2E6093590270935A0280935B0268
:1040E00090935C020E94C50840E85AE166E070E0E7
:1040F00087E896E00E9431278091B8008A838091FA
:10410000B900898384EE95E00E945D1283EE95E00C
:104110000E9406206091590270915A0280915B02C0
:1041200090915C024090CF055090D0056090D105F1
:104130007090D205461657066806790610F410925C
:10414000D305F0901506F1101DC0A50194010E9441
:1041500012312B013C0187E24816510461047104BD
:1041600018F48091380301C080E00E94680B87E258
:10417000481651046104710410F0F09037038F2D3C
:104180000E94460B4091590250915A0260915B0285
:1041900070915C028091D4059091D505A091D605CF
:1041A000B091D70584179507A607B70718F41092A2
:1041B000D80502C01093D8050E946A138091DD05CE
:1041C000882309F42BC18091550290915602A09149
:1041D0005702B0915802C296A11DB11D40915902DB
:1041E00050915A0260915B0270915C0284179507AE
:1041F000A607B70710F41092E6058091E605813016
:1042000051F584EE95E00E945913882311F18091B5
:10421000590290915A02A0915B02B0915C02809386
:10422000490290934A02A0934B02B0934C0260E083
:1042300084EE95E00E94E40B82EE95E00E94AA03D2
:104240000E942F1D83EE95E00E9406201092E60545
:1042500002C00E9496114091590250915A026091F9
:104260005B0270915C028091550290915602A09180
:104270005702B0915802C296A11DB11D841795072F
:10428000A607B70728F08091E605882319F09CC09F
:10429000109237038091D805811196C080910F0646
:1042A000882309F491C040935502509356026093BD
:1042B0005702709358020E94972E80913F028230DD
:1042C00060F0E0912D0184E0E89FF0011124E85FA7
:1042D000FC4F1082118212821382E0903E03F09014
:1042E0003F0384EE95E00E94D30E882319F00E94CC
:1042F0004E1425C08091A302893210F4809163028C
:1043000020913E0330913F03909110069F5F2D3224
:1043100081E0380714F0937001C0917090931006FB
:1043200080911006811104C08091310181118EC1EC
:10433000C9010E94CE14F092CD01E092CC012091EF
:1043400063028091E6029091E702820F911D9093A3
:10435000E7028093E6028091110681110CC00E9451
:1043600080128091EE029091EF0201969093EF02FD
:104370008093EE0221C04091590250915A026091FF
:104380005B0270915C028091E2029091E302A09145
:10439000E402B091E50288579C4EAF4FBF4F4817DB
:1043A00059076A077B07D8F24093E2025093E30271
:1043B0006093E4027093E5020093E6058091380172
:1043C000882331F00E941A188091E605823031F579
:1043D00084EE95E00E942311882301F18091590217
:1043E00090915A02A0915B02B0915C0280934102CD
:1043F00090934202A0934302B093440284EE95E06E
:104400000E943D0F84EE95E00E9462110E944611C9
:104410000E944E0C1093E9011093E60580913E0234
:10442000882309F4F2C08091E705811198C00E94A9
:10443000560F0E94961184EE95E00E94591388232E
:1044400009F48DC082EE95E00E94AA0384EE95E007
:104450000E94D7098091F0029091F1020196909309
:10446000F1028093F0020E94972E0E94E21183EEE7
:1044700095E00E9406200E94F308882309F46FC08B
:104480008091D001811104C082EE95E00E94AA03C0
:104490000E94AB1D2091A3028091E8029091E90255
:1044A000820F911D9093E9028093E8028091DE05CE
:1044B0009091DF05A091E005B091E1050196A11D65
:1044C000B11D8093DE059093DF05A093E005B093C6
:1044D000E10584EE95E00E943D0F0E94972E83EE49
:1044E00095E00E94062061E070E080E090E00E948C
:1044F000BC2E80910F06882321F11093370310936F
:10450000380380913E0390913F030E94CE14209186
:1045100063028091E6029091E702820F911D9093D1
:10452000E7028093E6028091EE029091EF020196FD
:104530009093EF028093EE020E9480120093E705B1
:104540000EC01092380383EE95E00E94062084EEA0
:1045500095E00E9462110E9446111092E705809139
:10456000E705823071F584EE95E00E9423118823DF
:1045700041F10E948B2E84EE95E00E94190A8091F1
:10458000590290915A02A0915B02B0915C02809313
:10459000450290934602A0934702B093480283EEEF
:1045A00095E00E94062084EE95E00E9462110E9430
:1045B00046111092E70580913801882331F10E945D
:1045C0001A188091E7058D7F01F184EE95E00E9435
:1045D000190A8091590290915A02A0915B02B09100
:1045E0005C028093450290934602A0934702B093E9
:1045F000480283EE95E00E94062084EE95E00E943A
:1046000062110E9446111092E70580915902909123
:104610005A02A0915B02B0915C0240914D02509110
:104620004E0260914F0270915002841B950BA60BB5
:10463000B70BC397A105B10508F44ACD80913801A5
:10464000882309F445CD0E941A1842CD0E947014A7
:104650008091590290915A02A0915B02B0915C0244
:104660008093510290935202A0935302B09354024C
:1046700062CE1F93CF93DF93EC01162F688187E8FA
:1046800096E00E943527612F87E896E00E94E82691
:1046900087E896E00E94B92741E0688187E896E0C4
:1046A0000E94B62787E896E00E949726DF91CF9177
:1046B0001F910895CF92DF92EF92FF921F93CF93B5
:1046C000DF93EC01CB01BA0126E636E646E65FE36E
:1046D0000E94BB299B01AC0160E27CEB8EEB95E470
:1046E0000E942D2820E030E040E85FE30E94C027D0
:1046F00020E030E040E05FE30E94C1270E941229E1
:104700006B017C0160E0CE010E943923182F482FF5
:104710004F76406160E0CE010E943F170000C70164
:10472000B6010E94A628462F6EEFCE010E943F17C9
:10473000412F60E0CE010E943F1765E070E080E00D
:1047400090E00E94BC2E412F416A60E0CE01DF91D3
:10475000CF911F91FF90EF90DF90CF900C943F1777
:1047600060E080E00E94C62F61E081E00E94C62FD9
:104770008091B90083608093B90084EE95E00E9437
:10478000130D80E48093E50562E370E080E090E043
:104790000E94BC2E85EE95E00E945D1740E050E03F
:1047A00060E772E485EE95E00E945A236AE070E0CB
:1047B00080E090E00E94BC2E40E050E060E772E4B0
:1047C00085EE95E00E945A236AE070E080E090E078
:1047D0000E94BC2E80E00E94680B80E00E94460B85
:1047E0000E9473160E94E3070E941B1684EE95E058
:1047F0000E94130D0E94731680913601882331F0B8
:1048000060E070E084E090E00E94F116809116066E
:10481000882341F00E948C1565E671E089ED96E0F1
:104820000E94842C0E944B0780930F0680911706EC
:104830008823B9F165E070E080E090E00E94BC2E32
:1048400085EE95E00E945D1740E050E060E772E47D
:1048500085EE95E00E945A2365E070E080E090E0EC
:104860000E94BC2E40E050E060E772E485EE95E0E7
:104870000E945A2365E070E080E090E00E94BC2E28
:1048800040E050E060E772E485EE95E00E945A2334
:1048900065E070E080E090E00E94BC2E0E94F12B69
:1048A000FFCF1092D4051092D5051092D605109224
:1048B000D70508951092860681E0809384061092B1
:1048C000830661E082E10E94023061E083E10E94A0
:1048D0000230E9EBF0E080818E7F808380818D7FE4
:1048E000808388E48093B80085E48093BC000895B9
:1048F0009B01AC0160E074E284EF90E00E94123111
:10490000DA01C9014097A109B109B695A795979514
:1049100087958093B8000895413208F043C0909184
:1049200086069111FCCF91E0909386062093840631
:104930002FEF2093190610925E06240F20935D0638
:104940009093850690918506880F892B8093850624
:1049500080918306813061F41092830680918506F0
:104960008093BB008091BC0083FDF8CF85EC01C033
:1049700085EE8093BC00809186068130E1F38091C2
:104980005E06841710F440915E06AFE5B6E0962F00
:10499000FB018E2F891B841718F48D918193F9CF19
:1049A000842F089580E008950F93413208F04AC0A3
:1049B000909186069111FCCF32E0309386060093E9
:1049C00084063FEF3093190610925E0640935D0611
:1049D000562FAFE5B6E0FB013E2F351B341718F418
:1049E00031913D93F9CF1092850630918506880F5D
:1049F000832B8093850680918306813061F4109229
:104A00008306809185068093BB008091BC0083FD66
:104A1000F8CF85EC01C085EE8093BC00222321F005
:104A2000809186068230D1F3809119068F3F79F00C
:104A300080911906803241F080911906803331F05F
:104A400094E005C091E003C092E001C093E0892F9B
:104A50000F91089540913B06262F30E0240F311D21
:104A600021323105DCF4209186062430C9F4FC01A2
:104A700080E090E0861758F430913B062191DC01EC
:104A8000A35CB94FA30FB11D2C930196F3CF809176
:104A90003B06680F60933B0680E0089581E008952F
:104AA00082E0089585ED8093BC008091BC0084FD78
:104AB000FCCF10928606089585EC8093BC0010927E
:104AC000860608951F920F920FB60F9211242F930E
:104AD0003F934F935F936F937F938F939F93AF9386
:104AE000BF93EF93FF938091B900887F803609F4DC
:104AF0009EC078F5883209F45DC090F4803109F4E5
:104B000056C038F4882309F4F5C0883009F44FC042
:104B1000F5C0883109F44EC0803209F45FC0EEC0A0
:104B2000803409F46AC058F4803309F457C08833DC
:104B300009F0E4C0809319060E945C25DFC080352F
:104B400009F44FC0883509F45DC0883409F0D6C037
:104B5000D3C0883909F4C4C0A8F4883709F467C001
:104B600038F4883609F463C0803709F460C0C6C0E1
:104B7000883809F4B5C0803909F45FC0803809F07D
:104B8000BDC05BC0803B09F483C038F4803A09F4AF
:104B900066C0883A09F47CC0B1C0803C09F4A4C066
:104BA000883C09F4A1C0883B09F487C0A7C0809164
:104BB000850610C090915E0680915D06981770F58D
:104BC000E0915E0681E08E0F80935E06F0E0E15A90
:104BD000F94F80818093BB0085EC83C080931906D8
:104BE0008BC0E0915E0681E08E0F80935E0680911F
:104BF000BB00F0E0E15AF94F808390915E0680910E
:104C00005D066BC0E0915E0681E08E0F80935E06CC
:104C10008091BB00F0E0E15AF94F808380918406D7
:104C200081116AC081E08093830684EA5EC083E0DC
:104C30008093860610921A06CFCF80911A06803292
:104C400008F04EC0E0911A0681E08E0F80931A069C
:104C50008091BB00F0E0E55EF94F8083BDCF0E94FC
:104C60005C2580911A06803230F4E0911A06F0E05B
:104C7000E55EF94F108260911A0670E0E0917F06C0
:104C8000F09180068BE196E0099510921A0636C0E5
:104C900084E08093860610923C0610923B06E091D9
:104CA0008106F0918206099580913B06811105C02D
:104CB00081E080933B0610923D06E0913C0681E046
:104CC0008E0F80933C06F0E0E35CF94F8081809387
:104CD000BB0090913C0680913B06981708F47CCF6E
:104CE00085E88093BC000AC085EC8093BC001092DC
:104CF000860604C0109219060E945225FF91EF917A
:104D0000BF91AF919F918F917F916F915F914F91E3
:104D10003F912F910F900FBE0F901F90189580918B
:104D2000B70690E02091B806821B910908959091F2
:104D3000B8068091B706981750F4E92FF0E0E754D1
:104D4000F94F208130E09F5F9093B80602C02FEFAB
:104D50003FEFC9010895E091B8068091B706E817C2
:104D600030F4F0E0E754F94F808190E008958FEF40
:104D70009FEF08950895CF92DF92EF92FF920F93E5
:104D80001F93CF93DF937C01CB018A01209193067F
:104D9000222389F0EB016B01C40ED51ECC15DD0575
:104DA00069F06991D701ED91FC910190F081E02DBE
:104DB000C7010995F3CF642F0E942A25C801DF910E
:104DC000CF911F910F91FF90EF90DF90CF900895BA
:104DD000CF93DF931F92CDB7DEB7698320919306FF
:104DE0002223D1F020919406203240F021E030E0DF
:104DF000FC013383228380E090E015C0809195060A
:104E0000E82FF0E0EA56F94F998190838F5F809305
:104E100095068093940605C061E0CE0101960E943C
:104E20002A2581E090E00F90DF91CF910895FC0159
:104E30001382128288EE93E0A0E0B0E08483958331
:104E4000A683B78385E791E09183808308951092CC
:104E5000B8061092B70610929506109294060C941C
:104E60005A24CB01BA010C94782481E080939306F4
:104E70006093B606109295061092940608950F93CB
:104E8000062F21E04091940666E976E08091B6060F
:104E90000E94D424109295061092940610929306C4
:104EA0000F9108954F925F926F927F92AF92BF924F
:104EB000CF92EF92FF920F931F93CF93DF935C01FA
:104EC000F62ED42F28013901EE2021F10E9435273A
:104ED000CE2DC43008F0C3E0C150C0F028E0C29F1E
:104EE000C0011124A301920104C05695479537953E
:104EF00027958A95D2F7CA01B901D501ED91FC91A8
:104F00000190F081E02DC5010995E6CF60E0C50173
:104F10000E943F274D2FD13208F040E22C2D69EB43
:104F200076E08F2D0E948C241092B8068093B706ED
:104F3000DF91CF911F910F91FF90EF90CF90BF9095
:104F4000AF907F906F905F904F900895CF92EF92C7
:104F50000F931F93C22EE12C00E010E098010E94F5
:104F600052271F910F91EF90CF90089521E00C945C
:104F7000A62761E00C943F2787E896E00C9417275A
:104F80005058BB27AA270E94D8270C9469290E9451
:104F90005B2938F00E94622920F039F49F3F19F410
:104FA00026F40C9458290EF4E095E7FB0C9429297B
:104FB000E92F0E947A2958F3BA176207730784070A
:104FC000950720F079F4A6F50C94B4290EF4E09539
:104FD0000B2EBA2FA02D0B01B90190010C01CA01B3
:104FE000A0011124FF27591B99F0593F50F4503E5E
:104FF00068F11A16F040A22F232F342F4427585F50
:10500000F3CF469537952795A795F0405395C9F767
:105010007EF41F16BA0B620B730B840BBAF091501F
:10502000A1F0FF0FBB1F661F771F881FC2F70EC0BE
:10503000BA0F621F731F841F48F487957795679591
:10504000B795F7959E3F08F0B0CF9395880F08F07D
:105050009927EE0F9795879508950E9441280C9403
:1050600069290E94622958F00E945B2940F029F4C6
:105070005F3F29F00C94292951110C94B5290C9407
:1050800058290E947A2968F39923B1F3552391F3A3
:10509000951B550BBB27AA2762177307840738F0A7
:1050A0009F5F5F4F220F331F441FAA1FA9F335D004
:1050B0000E2E3AF0E0E832D091505040E695001CB8
:1050C000CAF72BD0FE2F29D0660F771F881FBB1F72
:1050D000261737074807AB07B0E809F0BB0B802D50
:1050E000BF01FF2793585F4F3AF09E3F510578F07C
:1050F0000C9429290C94B5295F3FE4F3983ED4F32E
:10510000869577956795B795F7959F5FC9F7880F4F
:10511000911D9695879597F90895E1E0660F771FA1
:10512000881FBB1F621773078407BA0720F0621B32
:10513000730B840BBA0BEE1F88F7E09508950E945D
:10514000A6286894B1110C94B52908950E9482296B
:1051500088F09F5798F0B92F9927B751B0F0E1F038
:10516000660F771F881F991F1AF0BA95C9F714C0E8
:10517000B13091F00E94B429B1E008950C94B429A3
:10518000672F782F8827B85F39F0B93FCCF3869521
:1051900077956795B395D9F73EF49095809570957E
:1051A00061957F4F8F4F9F4F0895E89409C097FBFB
:1051B0003EF490958095709561957F4F8F4F9F4FEE
:1051C0009923A9F0F92F96E9BB279395F695879532
:1051D00077956795B795F111F8CFFAF4BB0F11F4F5
:1051E00060FF1BC06F5F7F4F8F4F9F4F16C088239C
:1051F00011F096E911C0772321F09EE8872F762FD2
:1052000005C0662371F096E8862F70E060E02AF012
:105210009A95660F771F881FDAF7880F96958795FE
:1052200097F908950E949C2990F09F3748F49111B6
:1052300016F00C94B52960E070E080E89FEB0895CB
:1052400026F41B16611D711D811D0C942F290C94D1
:105250004A2997F99F6780E870E060E00895882305
:1052600071F4772321F09850872B762F07C066239F
:1052700011F499270DC09051862B70E060E02AF060
:105280009A95660F771F881FDAF7880F969587958E
:1052900097F908959F3F31F0915020F487957795C5
:1052A0006795B795880F911D9695879597F90895FD
:1052B0009FEF80EC089500240A941616170618062E
:1052C0000906089500240A9412161306140605060A
:1052D0000895092E0394000C11F4882352F0BB0F9B
:1052E00040F4BF2B11F460FF04C06F5F7F4F8F4FFE
:1052F0009F4F089557FD9058440F551F59F05F3F39
:1053000071F04795880F97FB991F61F09F3F79F0E7
:1053100087950895121613061406551FF2CF469569
:10532000F1DF08C0161617061806991FF1CF8695EB
:1053300071056105089408950E948229A0F0BEE7D6
:10534000B91788F4BB279F3860F41616B11D672F74
:10535000782F8827985FF7CF869577956795B11D49
:1053600093959639C8F30895E894BB276627772765
:10537000CB0197F908950E94CE290C9469290E94C7
:105380005B2938F00E94622920F0952311F00C94DB
:1053900029290C94582911240C94B5290E947A29A2
:1053A00070F3959FC1F3950F50E0551F629FF00178
:1053B000729FBB27F00DB11D639FAA27F00DB11D91
:1053C000AA1F649F6627B00DA11D661F829F22271A
:1053D000B00DA11D621F739FB00DA11D621F839FA1
:1053E000A00D611D221F749F3327A00D611D231F77
:1053F000849F600D211D822F762F6A2F11249F57C5
:1054000050409AF0F1F088234AF0EE0FFF1FBB1FC7
:10541000661F771F881F91505040A9F79E3F510586
:1054200080F00C9429290C94B5295F3FE4F3983E51
:10543000D4F3869577956795B795F795E7959F5F30
:10544000C1F7FE2B880F911D9695879597F90895C2
:10545000FC01918D228D892F90E0805C9F4F821BF3
:1054600091098F7399270895FC01918D828D98176A
:1054700031F0828DE80FF11D858D90E008958FEF5A
:105480009FEF0895FC01918D828D981761F0828DB8
:10549000DF01A80FB11D5D968C91928D9F5F9F7368
:1054A000928F90E008958FEF9FEF08958AEB9BE233
:1054B000892B49F080E090E0892B29F00E94BA2BDB
:1054C00081110C9400000895FC01848DDF01A80F68
:1054D000B11DA35ABF4F2C91848D90E001968F731C
:1054E0009927848FA689B7892C93A089B1898C913B
:1054F00080648C93938D848D981306C00288F38901
:10550000E02D80818F7D80830895EF92FF920F932D
:105510001F93CF93DF93EC0181E0888F9B8D8C8D5F
:10552000981305C0E889F989808185FD24C0F62E8D
:105530000B8D10E00F5F1F4F0F731127E02E8C8D26
:10554000E8120CC00FB607FCFACFE889F989808110
:1055500085FFF5CFCE010E94642AF1CF8B8DFE012D
:10556000E80FF11DE35AFF4FF0820B8FEA89FB89A8
:105570008081806207C0EE89FF896083E889F989AC
:1055800080818064808381E090E0DF91CF911F91E2
:105590000F91FF90EF900895CF93DF93EC01888DEA
:1055A0008823C9F0EA89FB89808185FD05C0A88927
:1055B000B9898C9186FD0FC00FB607FCF5CF8081AD
:1055C00085FFF2CFA889B9898C9185FFEDCFCE01F7
:1055D0000E94642AE7CFDF91CF910895CF92DF92A6
:1055E000EF92FF921F93CF93DF93EC016A017B014F
:1055F000122FE889F98982E080834115514E6105B7
:105600007105B1F060E079E08DE390E0A7019601CB
:105610000E941231DA01C9010197A109B109B695B9
:10562000A795979587959C01211580E13807A8F0EB
:10563000E889F989108260E874E88EE190E0A701BA
:1056400096010E941231DA01C9010197A109B1093D
:10565000B695A795979587959C01EC85FD85308338
:10566000EE85FF852083188EEC89FD891083EA89F9
:10567000FB89808180618083EA89FB8980818860E1
:105680008083EA89FB89808180688083EA89FB893D
:1056900080818F7D8083DF91CF911F91FF90EF906C
:1056A000DF90CF900895FC01538D448D252F30E07D
:1056B000842F90E0821B930B541710F0CF9608951F
:1056C000019708951F920F920FB60F9211242F93F6
:1056D0008F939F93EF93FF93E091E906F091EA0691
:1056E0008081E091EF06F091F00682FD12C090817A
:1056F0008091F2068F5F8F732091F306821751F02D
:10570000E091F206F0E0E752F94F958F8093F206B0
:1057100001C08081FF91EF919F918F912F910F9008
:105720000FBE0F901F9018951F920F920FB60F92F9
:1057300011242F933F934F935F936F937F938F9396
:105740009F93AF93BF93EF93FF9389ED96E00E94F1
:10575000642AFF91EF91BF91AF919F918F917F91BB
:105760006F915F914F913F912F910F900FBE0F90CE
:105770001F90189589ED96E00E94282A21E0892B38
:1057800009F420E0822F0895E9EDF6E013821282F9
:1057900088EE93E0A0E0B0E084839583A683B7838E
:1057A00085E891E09183808385EC90E095878487FC
:1057B00084EC90E09787868780EC90E0918B808BDB
:1057C00081EC90E0938B828B82EC90E0958B848BC4
:1057D00086EC90E0978B868B118E128E138E148E32
:1057E0000895089508950E94032F0E94F22B0E94AD
:1057F000B023C6E5DAE20E945C202097E1F30E9424
:10580000562AF9CFCF92DF92EF92FF920F931F9318
:10581000CF93DF936C017A018B01C0E0D0E0CE150D
:10582000DF0581F0D8016D918D01D601ED91FC91DC
:105830000190F081E02DC6010995892B11F0219688
:10584000EECF7E01C701DF91CF911F910F91FF90A5
:10585000EF90DF90CF9008956115710579F0FB010D
:1058600001900020E9F73197AF01461B570BDC018F
:10587000ED91FC910280F381E02D099480E090E0AD
:105880000895EF92FF920F931F93CF93DF938C01B4
:105890007B01C0E0D0E0F701EC0FFD1F64916623AF
:1058A00061F0D801ED91FC910190F081E02DC801EB
:1058B0000995892B11F02196EECFCE01DF91CF9182
:1058C0001F910F91FF90EF9008950C942C2CDC0108
:1058D000ED91FC910190F081E02D099461E971E076
:1058E0000C942C2C0F931F93CF93DF93EC010E9409
:1058F000412C8C01CE010E946E2C800F911FDF91F4
:10590000CF911F910F9108950F931F93CF93DF9322
:10591000EC010E942C2C8C01CE010E946E2C800F79
:10592000911FDF91CF911F910F9108958F929F92B8
:10593000AF92BF92EF92FF920F931F93CF93DF939B
:10594000CDB7DEB7A1970FB6F894DEBF0FBECDBFBF
:105950007C01FA01CB0119A2223008F42AE08E0161
:105960000F5D1F4F822E912CA12CB12CBF01A501E0
:1059700094010E941231F901CA01015011096A30E3
:1059800010F4605D01C0695CD8016C93232B242B5B
:10599000252B61F7B801C7010E942C2CA1960FB6E8
:1059A000F894DEBF0FBECDBFDF91CF911F910F9155
:1059B000FF90EF90BF90AF909F908F90089521152A
:1059C000310541F4DC01ED91FC910190F081E02D75
:1059D000642F09940C94962C9A01AB0160E070E05E
:1059E0000C94DF2CCF92DF92EF92FF920F931F93D4
:1059F000CF93DF932115310581F4DC01ED91FC910A
:105A00000190F081E02D642FDF91CF911F910F91D4
:105A1000FF90EF90DF90CF9009942A30310501F587
:105A200077FF1DC06A017B01EC016DE20E94672CCB
:105A30008C0144275527BA014C195D096E097F096D
:105A40002AE0CE010E94962C800F911FDF91CF910A
:105A50001F910F91FF90EF90DF90CF9008952AE073
:105A6000DF91CF911F910F91FF90EF90DF90CF903A
:105A70000C94962C9A01AB01770F660B770B0C9464
:105A8000F22C0F931F93CF93DF93EC010E943A2DDA
:105A90008C01CE010E946E2C800F911FDF91CF915F
:105AA0001F910F9108957F928F929F92AF92BF9214
:105AB000CF92DF92EF92FF920F931F93CF93DF93DA
:105AC0008C016A017B01722E9A01AB01C701B601FC
:105AD0000E94C930882319F064E971E027C04601AB
