:100000000C946D020C9495020C9495020C94650B63
:100010000C94440C0C94810C0C9495020C94950255
:100020000C9495020C9495020C9495020C9419155D
:100030000C9495020C94BE0C0C9495020C949502B1
:100040000C94CF140C9495020C949D130C9477137C
:100050000C9495020C9495020C9495020C949502C4
:100060000C947D150C94950200000008000201001C
:100070000003040700000000000000004164616606
:10008000727569745F4C45444261636B7061636B68
:100090000000000000963007772C610EEEBA51097F
:1000A0009919C46D078FF46A7035A563E9A3956447
:1000B0009E3288DB0EA4B8DC791EE9D5E088D9D25F
:1000C000972B4CB609BD7CB17E072DB8E7911DBFBB
:1000D000906410B71DF220B06A4871B9F3DE41BEDA
:1000E000847DD4DA1AEBE4DD6D51B5D4F4C785D341
:1000F0008356986C13C0A86B647AF962FDECC965ED
:100100008A4F5C0114D96C0663633D0FFAF50D0844
:100110008DC8206E3B5E10694CE44160D5727167FA
:10012000A2D1E4033C47D4044BFD850DD26BB50A44
:10013000A5FAA8B5356C98B242D6C9BBDB40F9BC6C
:10014000ACE36CD832755CDF45CF0DD6DC593DD1C0
:10015000ABAC30D9263A00DE518051D7C81661D0F9
:10016000BFB5F4B42123C4B3569995BACF0FA5BD3A
:10017000B89EB802280888055FB2D90CC624E90BDE
:10018000B1877C6F2F114C6858AB1D61C13D2D6646
:10019000B69041DC760671DB01BC20D2982A10D5DE
:1001A000EF8985B1711FB5B606A5E4BF9F33D4B8FA
:1001B000E8A2C9077834F9000F8EA8099618980E9E
:1001C000E1BB0D6A7F2D3D6D08976C6491015C6306
:1001D000E6F4516B6B62616C1CD83065854E006231
:1001E000F2ED95066C7BA5011BC1F4088257C40F84
:1001F000F5C6D9B06550E9B712EAB8BE8B7C88B9AC
:10020000FCDF1DDD62492DDA15F37CD38C654CD4FF
:10021000FB5861B24DCE51B53A7400BCA3E230BB7D
:10022000D441A5DF4AD795D83D6DC4D1A4FBF4D6FF
:10023000D36AE96943FCD96E34468867ADD0B860AB
:10024000DA732D0444E51D03335F4C0AAAC97C0D03
:10025000DD3C710550AA41022710100BBE86200C10
:10026000C925B56857B3856F2009D466B99FE46185
:10027000CE0EF9DE5E98C9D9292298D0B0B4A8D79D
:10028000C7173DB359810DB42E3B5CBDB7AD6CBAF9
:10029000C02083B8EDB6B3BF9A0CE2B6039AD2B1D0
:1002A000743947D5EAAF77D29D1526DB048316DC77
:1002B00073120B63E3843B64943E6A6D0DA85A6A23
:1002C0007A0BCF0EE49DFF099327AE000AB19E077B
:1002D0007D44930FF0D2A3088768F2011EFEC20688
:1002E000695D5762F7CB67658071366C19E7066BFD
:1002F0006E761BD4FEE02BD3895A7ADA10CC4ADD15
:10030000676FDFB9F9F9EFBE8E43BEB717D58EB070
:1003100060E8A3D6D67E93D1A1C4C2D83852F2DF0A
:100320004FF167BBD16757BCA6DD06B53F4B36B270
:1003300048DA2B0DD84C1B0AAFF64A0336607A0414
:1003400041C3EF60DF55DF67A8EF8E6E3179BE697C
:10035000468CB361CB1A8366BCA0D26F2536E268A7
:100360005295770CCC03470BBBB91602222F2605FA
:1003700055BE3BBAC5280BBDB2925AB42B046AB322
:100380005CA7FFD7C231CFD0B58B9ED92C1DAEDE76
:100390005BB0C2649B26F263EC9CA36A750A936D02
:1003A00002A906099C3F360EEB85670772135700BA
:1003B00005824ABF95147AB8E2AE2BB17B381BB6E2
:1003C0000C9B8ED2920DBED5E5B7EFDC7C21DFDB36
:1003D0000BD4D2D38642E2D4F1F8B3DD686E83DA6F
:1003E0001FCD16BE815B26B9F6E177B06F7747B7B0
:1003F00018E65A0888706A0FFFCA3B06665C0B0154
:1004000011FF9E658F69AE62F8D3FF6B6145CF6CBB
:100410001678E20AA0EED20DD75483044EC2B3037D
:1004200039612667A7F71660D04D476949DB776EBB
:100430003E4A6AD1AEDC5AD6D9660BDF40F03BD8D3
:100440003753AEBCA9C59EBBDE7FCFB247E9FFB52F
:10045000301CF2BDBD8AC2BACA3093B353A6A3B44E
:10046000240536D0BA9306D7CD2957DE54BF67D9B5
:10047000232E7A66B3B84A61C4021B685D942B6F61
:100480002A37BE0BB4A18E0CC31BDF055A8DEF02B9
:100490002D00000000240027002A00000000002595
:1004A0000028002B00000000002300260029000483
:1004B000040404040404040202020202020303030B
:1004C0000303030102040810204080010204081005
:1004D00020010204081020009C2311241FBECFEF2E
:1004E000D8E0DEBFCDBF27E0ACE5B1E001C01D9292
:1004F000AF3BB207E1F711E0A0E0B1E0E0E3FEE4DA
:1005000002C005900D92AC35B107D9F712E0CDE6E7
:10051000D2E004C02197FE010E94B824CC36D10756
:10052000C9F70E941B1C0C9416270C94000000971E
:1005300069F0FC0101900020E9F73197AF01481BF9
:10054000590BBC0189E795E00C94741B80E090E0A6
:100550000895CF93DF930E949702EC0189E591E023
:100560000E9497028C0F9D1FDF91CF910895FF92FB
:100570000F931F93CF93DF93F82E082F10E088E19D
:1005800096E00E943C10EC0161E00E9428140115E5
:10059000110509F447C00F3F110509F445C0FE01DC
:1005A000FF27E859FF4FE491E330F9F048F4E130D8
:1005B000B9F0E230A1F584B5806284BDF8BC3DC0DD
:1005C000E730E9F0E83019F1E43049F58091800036
:1005D00080628093800010938B0000938A002DC06E
:1005E00084B5806884BDF7BC28C080918000806895
:1005F0008093800010938900009388001EC0809132
:10060000B00080688093B000F092B30016C0809173
:10061000B00080628093B000F092B4000EC0003849
:10062000110514F460E001C061E08C2FDF91CF91DF
:100630001F910F91FF900C94F813DF91CF911F91B0
:100640000F91FF900895CF92DF92EF92FF926B018E
:100650007C01E0918905F0918A0582E08083C114D4
:1006600081EED806E104F104B1F060E079E08DE3B9
:1006700090E0A70196010E94E526DA01C9010197E1
:10068000A109B109B695A795979587959C01211564
:1006900080E13807B8F0E0918905F0918A05108271
:1006A00060E874E88EE190E0A70196010E94E526DB
:1006B000DA01C9010197A109B109B695A7959795E6
:1006C00087959C01E0918505F09186053083E09146
:1006D0008705F0918805208310929105E0918D05A2
:1006E000F0918E0586E08083E0918B05F0918C057A
:1006F000808180618083E0918B05F0918C05808101
:1007000088608083E0918B05F0918C058081806802
:100710008083E0918B05F0918C0580818F7D8083B3
:10072000FF90EF90DF90CF900895682F8BE695E0D3
:100730000C94461320916A0590916905213208F0C6
:100740004AC0809146058111FCCF32E030934605C6
:1007500031E0309345053FEF309344051092430557
:1007600020934205A9E4B5E042E255E0FA013E2FAC
:10077000341B321718F43D913193F9CF10922105B3
:1007800020912105990F922B90932105909120059E
:10079000913061F410922005909121059093BB0057
:1007A0009091BC0093FDF8CF95EC01C095EE90932D
:1007B000BC00909146059230E1F3909144059F3F33
:1007C00079F080914405803241F080914405803376
:1007D00031F084E005C081E003C082E001C083E025
:1007E0001092480510926A05109247050895CF931C
:1007F000DF9321E02093470528E0209369051092BC
:10080000480510926A052CE02093B800EC0169912C
:10081000662329F08BE695E00E944613F8CFDF911E
:10082000CF910C949A030F931F93CF93DF938C0176
:10083000C0E0D0E0F801EC0FFD1F6491662371F079
:10084000E0917905F0917A050190F081E02D89E73A
:1008500095E00995892B11F02196ECCFCE01DF911F
:10086000CF911F910F910895CF93DF930E941304AE
:10087000EC0189E591E00E9497028C0F9D1FDF91AA
:10088000CF9108958F929F92AF92BF920F931F9333
:10089000CF93DF93CDB7DEB7A1970FB6F894DEBF45
:1008A0000FBECDBF19A2423008F44AE08E010F5DA1
:1008B0001F4F842E912CA12CB12CA50194010E94D4
:1008C000E526E62FB901CA0101501109EA3014F4F6
:1008D000E05D01C0E95CD801EC93232B242B252B90
:1008E00061F7C8010E949702A1960FB6F894DEBF87
:1008F0000FBECDBFDF91CF911F910F91BF90AF90F1
:100900009F908F900895CF93C82F20911D0530910F
:100910001E052A3B82E03807C4F440911C06509122
:100920001D06CA0101966CEB72E00E949024909320
:100930001D0680931C062F5F3F4F30931E052093AA
:100940001D05FC01EF59FD4FC08380911D0590915D
:100950001E0520911A0630911B062817390724F42A
:1009600090931B0680931A06CF91089580910701FA
:100970008F5F8093070190E020910501309106017F
:100980008217930710F010920701E0910701F0E041
:10099000E050FF4F408169E788E196E00C946307DF
:1009A00063E088E196E00E94AD1180935B0264E011
:1009B00088E196E00E94AD1180935A02089541E0CB
:1009C00067E088E196E00E94630743E068E088E121
:1009D00096E00E94630740E068E088E196E00E94AC
:1009E000630744E26EE788E196E00E94630745E012
:1009F00067E088E196E00E946307809116068823ED
:100A000031F040E46EE388E196E00E946307000065
:100A100042E065E088E196E00E9463070C94D00410
:100A20000E94A20B000041E067E088E196E00E948E
:100A3000630762E370E080E090E00E9489140E9406
:100A4000DF040000089543E565E788E196E00E9431
:100A5000630742E366E788E196E00E94630740E0AF
:100A600067E788E196E00C946307CF93DF9340E05B
:100A700062E388E196E00E94630740E063E388E177
:100A800096E00E946307C6E5D2E048816AE388E108
:100A900096E00E94630749816BE388E196E00E943B
:100AA00063074A816CE388E196E00E9463074B810B
:100AB0006DE388E196E00E94630748816FE388E177
:100AC00096E00E946307498160E488E196E00E9415
:100AD00063074A8161E488E196E00E9463074B81E5
:100AE00062E488E196E00E94630740E063E488E105
:100AF00096E00E94630740E064E488E196E00E948B
:100B0000630740E065E488E196E00E94630740E007
:100B100066E488E196E0DF91CF910C94630763E08F
:100B200088E196E00E94AD1180935B0264E088E169
:100B300096E00E94AD1180935A0240E066E088E1A1
:100B400096E00E94630741E067E088E196E00E943A
:100B500063074FE769E088E196E00E94630745E09C
:100B60006AE088E196E00E94630742E16BE088E179
:100B700096E00E94630745E16CE088E196E00E9400
:100B800063074DEF6DE088E196E00E94630740E067
:100B90006EE088E196E00E94630740E060E788E14C
:100BA00096E00E94630744E46DE188E196E00E94CC
:100BB000630745E06CE188E196E00E94630745E445
:100BC00060E288E196E00E94630741E061E288E12B
:100BD00096E00E94630747ED62E288E196E00E949A
:100BE00063074CED63E288E196E00E94630743E00F
:100BF00064E288E196E00E94630748EB65E288E1E1
:100C000096E00E9463074EE16AE288E196E00E9466
:100C100063074EE06EE688E196E00E9463074FEBC3
:100C20006FE688E196E00E94630743E261E788E1AE
:100C300096E00E9463074EE262E788E196E00E9438
:100C4000630740E868E588E196E00E9463074CE8A6
:100C500060E388E196E00E94630743EF62E388E186
:100C600096E00E94630742E463E388E196E00E9415
:100C7000630747E064E388E196E00E94630740E48D
:100C80006EE388E196E00E94630745E769E688E144
:100C900096E00E94630740E063E788E196E00E94E7
:100CA000630740E064E788E196E00E94630743E55C
:100CB00065E788E196E00E9463074DE766E788E113
:100CC00096E00E94630740E067E788E196E00E94B3
:100CD000630740E069E788E196E00E9463074FE020
:100CE0006AE788E196E00E9463074FE16DE688E1DC
:100CF00096E00E9463070C9435058091780588235F
:100D000019F0813039F0089580917705811104C080
:100D10008BE003C08AE001C087E090E008958091F5
:100D20007805882319F0813039F00895809177058E
:100D3000811104C08AE003C088E001C086E090E031
:100D400008959091780591110FC0909177059111B8
:100D50000BC0882321F00E948F0661E003C00E942F
:100D60008F0660E00C94F813089581342FE1920708
:100D700028F0809144068093430610C09C01285EB1
:100D80003340213A3F4068F0809144068F3030F480
:100D9000809144068F5F8093440608951092440624
:100DA0000895E0914406F0E0EE0FFF1FE55FFE4F6F
:100DB00091838083E9CF0F931F93CF93DF9300D06C
:100DC00000D0CDB7DEB72FE5829FC00111249C83F0
:100DD0008B838FE5689FB00111247A83698300E0DB
:100DE00010E08B819C81800F911F0E94AD1629819C
:100DF0003A81682FC901800F911F0E94AB160F5FC7
:100E00001F4F0F35110569F70F900F900F900F903E
:100E1000DF91CF911F910F910895809178058823DC
:100E200019F0813089F0089580917705811106C00D
:100E3000662311F05F9A08955F980895662311F074
:100E4000429A089542980895662311F05B9A089596
:100E50005B98089580917805882319F0813039F0E6
:100E60000895662311F05C9A08955C9808956623AE
:100E700011F05A9A08955A9808950F931F93CF939B
:100E8000DF93EC01062F61E00E942A0760E0CE01AB
:100E90000E940D0760E0CE010E942A0719E0115060
:100EA00051F0CE0107FF03C00E94491102C00E9409
:100EB0006011000FF4CF60E0CE01DF91CF911F9160
:100EC0000F910C940D070F931F93CF93DF93EC01B9
:100ED000042F60680E943D07000060E0CE010E9480
:100EE0000D0719E0115051F0CE0107FF03C00E9419
:100EF000491102C00E946011000FF4CF000060E0B1
:100F0000CE010E940D0761E0CE01DF91CF911F91CC
:100F10000F910C942A070F931F93CF93DF9300D068
:100F20001F92CDB7DEB78C0166E30E94AD118B83B3
:100F300048E566E3C8010E94630766E3C8010E94B2
:100F4000AD118A8319828A81883511F481E0898301
:100F50004B8166E3C8010E94630789810F900F905F
:100F60000F90DF91CF911F910F9108959091AA0159
:100F700080915602981306C02091AB0181E09091B8
:100F80005702291380E00895CF92DF92EF92FF92EB
:100F90000F931F93CF93DF936BE488E196E00E9459
:100FA000AD11C0906F06D0907006E0907106F09081
:100FB0007206813408F080E4C82FD0E023E333E3E5
:100FC00043E75FE3C701B6010E942B266B017C015A
:100FD000BE010D2E000C880B990B0E949F252DEC55
:100FE0003CEC4CE45DE30E942B269B01AC01C70165
:100FF000B6010E94BF2460936F06709370068093C1
:101000007106909372066FE788E196E00E943D07B3
:1010100000E010E00C171D075CF488E196E00E94E8
:101020007711F801E855FE4F80830F5F1F4FF2CF15
:10103000DF91CF911F910F91FF90EF90DF90CF90B4
:101040000C94DF044F925F926F927F92AF92BF92A7
:10105000CF92DF92EF92FF920F931F93CF93DF9384
:101060008091160681111FC080915D0290915E02F1
:10107000A0915F02B0916002809360019093610142
:10108000A0936201B0936301DF91CF911F910F9103
:10109000FF90EF90DF90CF90BF90AF907F906F90D8
:1010A0005F904F90089580916D0690916E06019625
:1010B00090936E0680936D06CDE4D6E096E0B92E4F
:1010C00000E010E020EAC22E2FE0D22EE12CF12C1D
:1010D000AA24A394F801EE0FFF1FE55FFE4F808165
:1010E0009181883E23E092075CF0893823E19207E2
:1010F00014F088E893E1092E000CAA0BBB0B04C086
:1011000088EE93E0A0E0B0E09C01AD01285E3340A2
:1011100041095109A2ECB1E00E94D226A701960133
:101120000E94B32629013A0186E9480E511C611C30
:10113000711C888199818415950519F18091190692
:10114000A0924705809369051092480510926A05A0
:101150006B2D8BE695E00E94461380E090E00E94A4
:10116000950380E090E00E949503C2010E949503E0
:10117000852D90E00E94950300000E949A035982F9
:1011800048820F5F1F4F229624E0B20E86E4B81209
:10119000A1CF6ACFEF92FF920F931F93CF935BE0A3
:1011A000E52EF12C00E010E0C70101970E94AD167A
:1011B000C82FC7010E94AD162C2F30E0322F2227F6
:1011C000280F311DF801EE0FFF1FE55FFE4F318341
:1011D00020830F5F1F4F82E0E80EF11C00311105E4
:1011E00019F7CF911F910F91FF90EF900895000094
:1011F0000C94AD16CF9384E090E00E94F708C82FBE
:1012000085E090E00E94F70890E024E6C29F800D00
:10121000911D1124CF9108950F931F938A019B0173
:101220000827D901C8019927AA27BB27FC01EE0F7F
:10123000FF1FEE0FFF1FEF56FF4F85919591A59170
:10124000B491452F562F672F77278C019D010427D6
:10125000152726273727C901B8011F910F91089537
:10126000CF93DF93CDB7DEB760970FB6F894DEBFAC
:101270000FBECDBF4FEF5FEFBA0149835A836B8337
:101280007C8390E09C878B872B853C854FE5429F34
:10129000C001439F900D11249A8789872B853C8537
:1012A0002F5F3F4F429FC001439F900D1124059730
:1012B00098878F8389859A859E838D832D813E8132
:1012C0008F81988528173907D4F449815A816B8119
:1012D0007C818D819E814D875E876F87788B0E9490
:1012E000AD164D855E856F8578890E940C096983EE
:1012F0007A838B839C838D819E810196DDCF89814A
:101300009A81AB81BC8180959095A095B095898399
:101310009A83AB83BC8389819A81AB81BC8127E3AB
:10132000822724E2922726E4A2272AEBB227898388
:101330009A83AB83BC8369817A818B819C8160961F
:101340000FB6F894DEBF0FBECDBFDF91CF910895E9
:101350001F93CF93DF9300D000D0CDB7DEB780E0EE
:101360000E94300969837A838B839C8369817A81A7
:101370008B819C818EE590E00E94AB1689819A81D9
:10138000AB81BC81692F7A2F8B2F99278DE590E057
:101390000E94AB1689819A81AB81BC81BD018827EF
:1013A00099278CE590E00E94AB1689819A81AB81E8
:1013B000BC816B2F7727882799278BE590E00E94C7
:1013C000AB1611E0612F80E00E94DB061F5F173033
:1013D000C9F70F900F900F900F90DF91CF911F9151
:1013E00008953F924F925F926F927F928F929F9259
:1013F000AF92BF92CF92DF92EF92FF920F931F9323
:10140000CF93DF93CDB7DEB72F970FB6F894DEBF3B
:101410000FBECDBFCE0101962C0100E010E08FE59C
:10142000682E712C7F866E861D861C86802F0E94FA
:101430003009688779878A879B872E853F85780161
:101440009FEFE91AF90A2E9DC0012F9D900D3E9D38
:10145000900D112401970E94AD16882E2E853F8590
:101460002E9DC0012F9D900D3E9D900D1124029741
:101470000E94AD16982E2E853F852E9DC0012F9D72
:10148000900D3E9D900D112403970E94AD16A82E3D
:101490002E853F852E9DC0012F9D900D3E9D900D68
:1014A000112404970E94AD16B82E4E855F858C8559
:1014B0009D85409F9001419F300D509F300D11241C
:1014C000820F931F0E94F708C82E4E855F858C857A
:1014D0009D85409F9001419F300D509F300D1124FC
:1014E000820F931F01960E94F708D82E4E855F85C4
:1014F0002C853D85409FC001419F900D509F900DD0
:101500001124820F931F02960E94F708382E6E85D1
:101510007F852C853D85609FA001619F500D709F48
:10152000500D1124CA01820F931F03960E94F708E1
:10153000488559856A857B85481559056A057B0567
:1015400061F4E5E5CE1209C0FCE4DF1206C092E5C5
:10155000391203C091E0833509F090E0F2019193D4
:101560002F0187010730110509F05CCFCE010196EC
:101570007C0110E0F70181917F01811112C0FE0111
:10158000319620E030E08191882329F0612F822F6D
:101590000E94DB0606C02F5F3F4F2730310599F7C9
:1015A00004C01F5F173031F781E02F960FB6F89413
:1015B000DEBF0FBECDBFDF91CF911F910F91FF9086
:1015C000EF90DF90CF90BF90AF909F908F907F90E3
:1015D0006F905F904F903F900895CF92DF92EF927F
:1015E000FF920F931F93CF93DF937C018B010E9497
:1015F000AF16801791072CF489E795E00E946312DB
:10160000F6CFE701CE018E199F09801791072CF5BF
:101610006E01699189E795E00E941C1240912B01AF
:1016200050912C0160912D0170912E01F601808165
:101630000E940C0960932B0170932C0180932D0163
:1016400090932E0120913C0730913D072F5F3F4F33
:1016500030933D0720933C07D5CFDF91CF911F9169
:101660000F91FF90EF90DF90CF900895CF93C82F08
:101670000E94AF16181619062CF089E795E00E9413
:101680006312F6CF6C2F89E795E00E941C124091FF
:101690002B0150912C0160912D0170912E018C2F06
:1016A0000E940C0960932B0170932C0180932D01F3
:1016B00090932E0180913C0790913D070196909365
:1016C0003D0780933C07CF9108951F920F920FB66C
:1016D0000F9211240F900FBE0F901F901895A6E542
:1016E000B2E08C91E8E6F1E0828311968C918383DD
:1016F0000895CF93DF93C0910701D0E066E288E1BF
:1017000096E00E94AD11CC0FDD1FCC0FDD1FC85D30
:10171000D84F682F70E080E090E00E949D2523E381
:1017200033E343EF5FE30E942B2520E030E042E00B
:1017300053E40E94BE24688379838A839B83DF916C
:10174000CF91089563E088E196E00E94AD11809307
:101750005B0264E088E196E00E94AD1180935A023A
:1017600008950E94A20B41E067E088E196E00C94A6
:101770006307CF92DF92EF92FF921F93CF93DF9395
:1017800081E08093ED010E94B10B0E94E0160E945F
:10179000E01647E064E388E196E00E9463078091E9
:1017A0001706882329F0C0916901D0E0249602C071
:1017B000C0E0D0E080911606882321F0C091690135
:1017C000D0E0249681E090E090934C0680934B0605
:1017D0004C2F6EE388E196E00E9463076091470614
:1017E000709148068091490690914A0623E333E3BD
:1017F00043E75FE30E942B266B017C01BE010D2EA7
:10180000000C880B990B0E949F252DEC3CEC4CE4BE
:101810005DE30E942B269B01AC01C701B6010E942B
:10182000BF246093470670934806809349069093BF
:101830004A0610E0812F90E08C179D075CF4FC01B4
:10184000E859FE4F40816FE788E196E00E94630708
:101850001F5FF0CF44E065E088E196E00E946307F7
:101860000E94D00449E067E088E196E00E946307A7
:101870008BEC97E00197F1F7DF91CF911F91FF90EB
:10188000EF90DF90CF9008951F920F920FB60F92B6
:1018900011242F933F934F935F936F937F938F9375
:1018A0009F93AF93BF93EF93FF93809184009091A8
:1018B0008500909346068093450688E196E00E9455
:1018C0003F0E0E94CF13892B59F010928500109281
:1018D0008400809145069091460606960E94B506C2
:1018E000FF91EF91BF91AF919F918F917F916F91F8
:1018F0005F914F913F912F910F900FBE0F901F90CE
:1019000018951F920F920FB60F9211242F933F93A9
:101910004F935F936F937F938F939F93AF93BF93F7
:10192000EF93FF93809184009091850090934606F9
:101930008093450688E196E00E943F0E0E94CF13F7
:10194000892B59F0109285001092840080914506F1
:101950009091460606960E94B506FF91EF91BF91C1
:10196000AF919F918F917F916F915F914F913F9137
:101970002F910F900FBE0F901F9018951F920F92EE
:101980000FB60F9211242F933F938F939F93EF9352
:10199000FF93809142068130F9F480917805882385
:1019A00019F0813049F00FC080917705882311F03C
:1019B0005F9809C05B9807C08091E806811102C05A
:1019C000409801C0439882E09AE990938500809303
:1019D00084001092420644C080914106813130F06B
:1019E000109241061092400610923F0680914106E7
:1019F000803119F488E39CE711C0E0914106F0E0E2
:101A0000E751F94FE081F0E0EE0FFF1FE55FFE4F79
:101A10002081318186E99EE9821B930B909385009A
:101A20008093840081E0809342068091780588232A
:101A300019F0813049F00FC080917705882311F0AB
:101A40005F9A09C05B9A07C08091E806811102C0C5
:101A5000409A01C0439A809141068F5F809341066E
:101A6000FF91EF919F918F913F912F910F900FBE1A
:101A70000F901F901895E1E8F0E010821092850019
:101A800010928400000080E49CE99093870080938A
:101A9000860082E0809380008AE18083000081E0FC
:101AA00080936F0008950895CF93C82F8FE20E940E
:101AB000360B86E70E94360B8AE20E94360B84E2E0
:101AC0000E94360B8C2F0E94360B80E0CF910C9435
:101AD000360B80917805882319F0813039F00CC0DD
:101AE00080917705811109C083E00AC08091E806E2
:101AF000882329F08EE004C0089587E001C081E1C9
:101B000090E0089581E00E94A10664EB70E080E01F
:101B100090E00E94891480E00E94A1066CE370E0CE
:101B200080E090E00C94891481E00E94A1066CE3AF
:101B300070E080E090E00E94891480E00E94A1069D
:101B40006CE370E080E090E00C948914EF92FF92D7
:101B50000F931F93CF93DF938AE290E00E94AD161C
:101B600090E08630910510F085E090E090930601BA
:101B700080930501E0900501F090060100E011E07E
:101B8000C0E0D0E0CE15DF0549F0CE018B960E9473
:101B9000AD16F80181938F012196F4CF80E390E098
:101BA0000E94AD168093560281E390E00E94AD162C
:101BB0008093570209EE16E0C3E3D0E0CE010E9405
:101BC000AD16F80181938F012196C334D105B1F789
:101BD00083E490E00E94AD168093E806DF91CF91F8
:101BE0001F910F91FF90EF900895FF920F931F9315
:101BF000CF93DF93EC0182E4809368018091170614
:101C0000882329F0CD33D10514F0CCE3D0E08091C6
:101C10001606882329F0CD33D10514F0CCE3D0E0AB
:101C2000C09369010E946F0BF12C8F2D90E08C17EF
:101C30009D075CF48C010C5F1F4F0E94BF16F801DA
:101C4000E859FE4F8083F394F0CF8091080790917C
:101C50000907A0910A07B0910B070196A11DB11DBC
:101C60008093080790930907A0930A07B0930B0786
:101C7000CE01DF91CF911F910F91FF900895809138
:101C80007805882319F0813039F00CC080917705F0
:101C9000811109C083E00AC08091E806882329F0F9
:101CA00081E104C0089587E001C08EE090E00895CE
:101CB000CF92DF92EF92FF920F931F93CF93DF9318
:101CC0000E94F1098823C1F082E390E00E94AD16E2
:101CD000823551F0843581F410920A011092160673
:101CE00081E0809317060BC010920A0181E0809377
:101CF00016061092170603C081E080930A018091B6
:101D00000A01882309F445C00E94C3146B017C01B9
:101D100088E196E00E943F0E62E00E9428148091C4
:101D20007805813039F488E196E00E94690D62E01F
:101D30000E94281488E196E00E943F0E0E94CF1373
:101D400011E0892B09F410E0C0E0D0E088E196E0D2
:101D50000E943F0E0E94CF1301E0892B09F400E09E
:101D6000101321960E94C314102FDC01CB018C1993
:101D70009D09AE09BF09C297A105B10538F391E0ED
:101D800026970CF490E09093170681E089278093C2
:101D900016061092ED011092EC018091170688232F
:101DA00009F4D7C080917705811105C00E948F0684
:101DB00061E00E9428140E947D0660E00E942814C1
:101DC00088E196E00E943F0E60E00E942814809116
:101DD0007805813071F488E196E00E94690D61E038
:101DE0000E94281488E196E00E94690D60E00E943C
:101DF000F81360E071EE80E090E00E942303809190
:101E00006F008E7F80936F008091780581111FC0D5
:101E10008091770510926C0010926D00882321F05C
:101E200080916D00806803C080916D008860809310
:101E30006D00809168008E7F8093680080916800BB
:101E40008D7F8093680080916800846036C08091A7
:101E5000E8068130C1F410926C0010926D00809100
:101E60006C00886080936C00809168008E7F809306
:101E700068008091680082608093680080916800AB
:101E80008B7F809368008091E806811118C01092C2
:101E90006C0010926D0080916C00816080936C00EA
:101EA000809168008E7F80936800809168008260D6
:101EB00080936800809168008B7F8093680085E63E
:101EC0009AEE909387008093860082E08093800052
:101ED0001092810010928500109284008AE1809314
:101EE00081000E948F050E9423054FE16DE688E185
:101EF00096E00E946307789480E00E94A1060E9409
:101F00007D0661E00E94F81364E670E080E090E0F6
:101F10000E94891488E196E00E943F0E61E00E94D1
:101F2000F81310920901109208010E94DF040E9428
:101F3000C31460935D0270935E0280935F0290937E
:101F400060026093E8017093E9018093EA01909345
:101F5000EB0180911606882309F485C088E196E09C
:101F60000E943F0E61E00E94281480917805813024
:101F700071F488E196E00E94690D61E00E942814E6
:101F800088E196E00E94690D60E00E94F81380915C
:101F900077058823E1F061E083E00E94281461E086
:101FA00085E00E94281461E086E00E94281461E028
:101FB00089E00E94281461E08AE00E94281461E010
:101FC0008BE00E94281461E08CE00E94281410929B
:101FD0006C0010926D00809168008B7F8093680088
:101FE000809168008D7F8093680060E07BE480E0F2
:101FF00090E00E9423030E943B0D0E94CA084FE11B
:102000006DE688E196E00E9463070E948F050E94BA
:102010002305E0910701F0E0E050FF4F408169E7C0
:1020200088E196E00E9463070E94100578940E9460
:10203000B6040E94C31460935D0270935E028093A5
:102040005F029093600260935C0170935D018093E6
:102050005E0190935F0160936401709365018093CA
:10206000660190936701DF91CF911F910F91FF90CF
:10207000EF90DF90CF90089580917805882319F034
:10208000813039F0089580917705811104C085E091
:1020900003C089E001C083E090E008958091780555
:1020A000882329F0813011F482E002C0089584E091
:1020B00090E0089580917805882319F0813039F0F7
:1020C000089580917705811104C087E003C083E003
:1020D00001C080E190E00895EF92FF920F931F936B
:1020E000CF93DF931F92CDB7DEB77C018091780547
:1020F000882321F0813049F436E007C080917705CC
:10210000811102C03CE001C03DE061E0832F2983E2
:102110000E942814809178052981882321F081303C
:1021200049F427E007C080917705811102C02DE0B6
:1021300001C021E161E0822F0E942814809178057E
:10214000882321F0813049F405E007C080917705AC
:10215000811102C009E001C00EE060E0802F0E9402
:10216000281480917805882321F0813049F414E007
:1021700007C080917705811102C018E001C01FE0FF
:1021800061E0812F0E942814C7010E945A1061E06B
:102190000E94281460E082E00E942814C7010E9477
:1021A0004E1061E00E942814C7010E943C1061E0BB
:1021B0000E942814C7010E945A1061E00E9428144E
:1021C00060E082E00E942814C7010E944E1061E086
:1021D0000E942814C7010E943C1061E00E9428144C
:1021E000C7010E943F0E60E00E942814809178058C
:1021F000813069F4C7010E94690D60E00F90DF91A2
:10220000CF911F910F91FF90EF900C9428140F9095
:10221000DF91CF911F910F91FF90EF9008958091E2
:102220007805882319F0813089F008958091770529
:10223000811106C0662311F02C9A08952C980895F8
:10224000662311F02D9A08952D980895662311F0B4
:102250005E9A08955E98089580917805882319F014
:10226000813089F0089580917705811106C0662339
:1022700011F02D9A08952D980895662311F0439A30
:10228000089543980895662311F05F9A08955F9822
:10229000089580917805882319F0813069F00895B8
:1022A00080917705811104C05F98289A5F9A0895FC
:1022B0004298419A429A08955B985C9A5B9A089575
:1022C00080917805882319F0813069F00895809114
:1022D0007705811104C05F9828985F9A0895429805
:1022E0004198429A08955B985C985B9A0895EF92A2
:1022F000FF921F93CF93DF937C0160E00E940D0754
:10230000000018E0D0E0DD0F61E0C7010E940D077A
:1023100080917805882339F0813079F4C9B1C5FB03
:10232000CC27C0F90AC080917705882319F0C6B17F
:10233000C17003C0C3B1C695C170C111D16060E066
:10234000C7010E940D071150F1F600008D2FDF919B
:10235000CF911F91FF90EF9008951F93CF93DF933C
:10236000EC016F770E943D070000CE010E947711BB
:10237000182F61E0CE010E942A070000812FDF9113
:10238000CF911F910895FC01918D828D981761F076
:10239000828DDF01A80FB11D5D968C91928D9F5F9C
:1023A0009F73928F90E008958FEF9FEF0895FC0147
:1023B000918D828D981731F0828DE80FF11D858DFA
:1023C00090E008958FEF9FEF0895FC01918D228D8D
:1023D000892F90E0805C9F4F821B91098F73992712
:1023E000089589E795E00E94E51121E0892B09F421
:1023F00020E0822F0895FC01848DDF01A80FB11D1C
:10240000A35ABF4F2C91848D90E001968F7399272A
:10241000848FA689B7892C93A089B1898C91806417
:102420008C93938D848D981306C00288F389E02DD8
:1024300080818F7D80830895EF92FF920F931F9389
:10244000CF93DF93EC0181E0888F9B8D8C8D981367
:1024500005C0E889F989808185FD24C0F62E0B8DA1
:1024600010E00F5F1F4F0F731127E02E8C8DE812C5
:102470000CC00FB607FCFACFE889F989808185FF87
:10248000F5CFCE010E94FB11F1CF8B8DFE01E80F3D
:10249000F11DE35AFF4FF0820B8FEA89FB8980819F
:1024A000806207C0EE89FF896083E889F9898081AD
:1024B0008064808381E090E0DF91CF911F910F9144
:1024C000FF90EF900895CF93DF93EC01888D8823E0
:1024D000C9F0EA89FB89808185FD05C0A889B98991
:1024E0008C9186FD0FC00FB607FCF5CF808185FF6C
:1024F000F2CFA889B9898C9185FFEDCFCE010E94DA
:10250000FB11E7CFDF91CF91089580E090E0892B18
:1025100029F00E94F11181110C940000089583307C
:1025200081F028F4813099F08230A1F0089587304D
:10253000A9F08830B9F08430D1F4809180008F7D8B
:1025400003C0809180008F7780938000089584B5C8
:102550008F7702C084B58F7D84BD08958091B000CF
:102560008F7703C08091B0008F7D8093B000089575
:1025700085ED8093BC008091BC0084FDFCCF10925F
:102580004605089540919506262F30E0240F311D11
:1025900021323105DCF4209146052430C9F4FC01D8
:1025A00080E090E0861758F4309195062191DC0187
:1025B000AD58B94FA30FB11D2C930196F3CF809165
:1025C0009506680F6093950680E0089581E0089570
:1025D00082E008950895E091460780914507E81745
:1025E00030F4F0E0E156F84F808190E008958FEFED
:1025F0009FEF08959091460780914507981750F4F2
:10260000E92FF0E0E156F84F208130E09F5F909392
:10261000460702C02FEF3FEFC9010895809145079B
:1026200090E020914607821B91090895CF92DF9296
:10263000EF92FF920F931F93CF93DF937C01262F8E
:10264000972F8A0180914705882391F0C62FD72FB5
:102650006E01C40ED51ECC15DD0571F06991D70150
:10266000ED91FC910190F081E02DC7010995F3CF28
:10267000642F822F0E94C212C801DF91CF911F9157
:102680000F91FF90EF90DF90CF900895CF93DF935D
:102690001F92CDB7DEB76983209147052223D1F081
:1026A00020916A05203240F021E030E0FC013383C4
:1026B000228380E090E015C080914805E82FF0E08B
:1026C000E75BFA4F998190838F5F809348058093F1
:1026D0006A0505C061E0CE0101960E94C21281E048
:1026E00090E00F90DF91CF9108950E9498261F925D
:1026F0000F920FB60F9211242F933F934F935F9336
:102700006F937F938F939F93AF93BF93EF93FF93B9
:1027100089E795E00E94FB11FF91EF91BF91AF9186
:102720009F918F917F916F915F914F913F912F91E9
:102730000F900FBE0F901F9018951F920F920FB61B
:102740000F9211242F938F939F93EF93FF93E09118
:102750008905F0918A058081E0918F05F0919005BF
:1027600082FD12C09081809192058F5F8F732091BE
:102770009305821751F0E0919205F0E0E758FA4F87
:10278000958F8093920501C08081FF91EF919F9179
:102790008F912F910F900FBE0F901F901895CF9390
:1027A000DF93282F30E0F901E859FF4F8491F901B8
:1027B000ED53FB4FD491F901E155FB4FC491CC236C
:1027C00091F081110E948F12EC2FF0E0EE0FFF1FAD
:1027D000EB55FB4FA591B491EC91ED2381E090E096
:1027E00021F480E002C080E090E0DF91CF91089575
:1027F0001F93CF93DF93282F30E0F901E859FF4F63
:102800008491F901ED53FB4FD491F901E155FB4F50
:10281000C491CC23C9F0162F81110E948F12EC2F86
:10282000F0E0EE0FFF1FE556FB4FA591B4918FB777
:10283000F894111105C09C91ED2FE095E92302C099
:10284000EC91ED2BEC938FBFDF91CF911F91089509
:10285000CF93DF9390E0FC01ED53FB4F2491FC01FB
:10286000E155FB4F8491882361F190E0880F991F17
:10287000FC01EF56FB4FC591D491FC01E556FB4F8F
:10288000A591B491611109C09FB7F89488812095F2
:1028900082238883EC912E230BC0623061F49FB7B2
:1028A000F8943881822F809583238883EC912E2B96
:1028B0002C939FBF06C08FB7F894E8812E2B2883F6
:1028C0008FBFDF91CF9108953FB7F8948091E406D0
:1028D0009091E506A091E606B091E70626B5A89B83
:1028E00005C02F3F19F00196A11DB11D3FBFBA2FA2
:1028F000A92F982F8827820F911DA11DB11DBC0102
:10290000CD0142E0660F771F881F991F4A95D1F7C6
:1029100008958F929F92AF92BF92CF92DF92EF92E3
:10292000FF926B017C010E9464144B015C01C11495
:10293000D104E104F104F1F00E946414DC01CB0144
:1029400088199909AA09BB09883E9340A105B105D8
:1029500070F321E0C21AD108E108F10888EE880E70
:1029600083E0981EA11CB11CC114D104E104F10440
:1029700019F7DDCFFF90EF90DF90CF90BF90AF9031
:102980009F908F9008952FB7F8946091E006709112
:10299000E1068091E2069091E3062FBF08951F9211
:1029A0000F920FB60F9211242F933F938F939F9303
:1029B000AF93BF938091E0069091E106A091E2066B
:1029C000B091E3063091DF0623E0230F2D3720F48A
:1029D0000196A11DB11D05C026E8230F0296A11D79
:1029E000B11D2093DF068093E0069093E106A0934B
:1029F000E206B093E3068091E4069091E506A0918B
:102A0000E606B091E7060196A11DB11D8093E4068C
:102A10009093E506A093E606B093E706BF91AF91C9
:102A20009F918F913F912F910F900FBE0F901F900C
:102A300018951F920F920FB60F9211242F933F9368
:102A40008F939F93EF93FF938091DE0687FF05C0DE
:102A5000109285001092840005C08091DE0687FDEB
:102A60008091DE068091DE068F5F8093DE06809186
:102A7000DE0687FF20C08091DE068C30E4F42091D2
:102A80008400309185008091DE06082E000C990BA1
:102A9000FC01EE0FFF1F8E0F9F1FFC01E654F94F44
:102AA00081819281820F931F909389008093880087
:102AB0008091DE0617C08091840090918500049675
:102AC00080349C4918F480E49CE905C0809184001E
:102AD00090918500049690938900809388008FEFF1
:102AE0008093DE06FF91EF919F918F913F912F91FF
:102AF0000F900FBE0F901F9018951F920F920FB658
:102B00000F9211242F933F934F935F936F937F9373
:102B10008F939F93AF93BF93EF93FF938091B900EF
:102B2000887F803609F49CC068F5883209F45BC060
:102B300090F4803109F454C038F4882309F4F6C0C5
:102B4000883009F44DC0F6C0883109F44CC0803299
:102B500009F45DC0EFC0803409F468C048F48033E4
:102B600009F455C0883309F0E5C080934405D8C006
:102B7000803509F44FC0883509F45DC0883409F008
:102B8000D9C0D6C0883909F4C7C0A8F4883709F479
:102B900067C038F4883609F463C0803709F460C030
:102BA000C9C0883809F4B8C0803909F45FC08038DA
:102BB00009F0C0C05BC0803B09F486C038F4803A9D
:102BC00009F466C0883A09F47FC0B4C0803C09F4B7
:102BD000A7C0883C09F4A4C0883B09F48AC0AAC0F5
:102BE0008091210510C0909143058091420598176E
:102BF00070F5E091430581E08E0F80934305F0E08E
:102C0000EE5DFA4F80818093BB0085EC86C0809397
:102C100044058EC0E091430581E08E0F809343050B
:102C20008091BB00F0E0EE5DFA4F80839091430508
:102C3000809142056EC0E091430581E08E0F809344
:102C400043058091BB00F0E0EE5DFA4F80838091F8
:102C5000450581116DC081E08093200584EA61C043
:102C600083E0809346051092B906CFCF8091B906D4
:102C7000803208F051C0E091B90681E08E0F809358
:102C8000B9068091BB00F0E0E756F94F8083BDCFD5
:102C900085EC8093BC00109246058091B906803285
:102CA00030F4E091B906F0E0E756F94F10826091F8
:102CB000B90670E0E0919706F091980689E996E0F0
:102CC00009951092B90636C084E0809346051092AB
:102CD000960610929506E0919306F0919406099558
:102CE00080919506811105C081E080939506109230
:102CF0007306E091960681E08E0F80939606F0E0D1
:102D0000ED58F94F80818093BB0090919606809199
:102D10009506981708F479CF85E88093BC000AC01F
:102D200085EC8093BC001092460504C010924405C7
:102D30000E94B812FF91EF91BF91AF919F918F9137
:102D40007F916F915F914F913F912F910F900FBEA7
:102D50000F901F9018950C94A5260C949D265091C9
:102D6000940540919505252F30E0842F90E0821B3B
:102D7000930B541710F0CF96089501970895209162
:102D80001D0530911E0512161306C4F480919D078F
:102D900090919E0701966CEB72E00E9490249093B4
:102DA0009E0780939D072150310930931E05209383
:102DB0001D05FC01EF59FD4F8081089580E00895C5
:102DC00042E068E088E196E00E94630740E068E046
:102DD00088E196E00C946307CF93C62F9091190673
:102DE00021E02093470590936905109248051092C1
:102DF0006A05682F8BE695E00E9446136C2F8BE6E0
:102E000095E00E944613CF910C949A0310924607C6
:102E1000109245071092480510926A0510924605D7
:102E200081E0809345051092200561E082E10E94D7
:102E3000F81361E083E10E94F813E9EBF0E0808190
:102E40008E7F808380818D7F808388E48093B8002B
:102E500085E48093BC0060E080E00C94EC164F9217
:102E60005F926F927F928F929F92AF92BF92CF921A
:102E7000DF92FF920F931F93CF93DF9300D000D088
:102E8000CDB7DEB789E795E00E94E511FF24F39402
:102E900088248A94982C540120911D0530911E0598
:102EA000181619060CF001C42A3BB2E03B070CF0DF
:102EB000FCC389E795E00E94C311182F80919C07FD
:102EC000882309F4A7C320919A0730919B072634E1
:102ED000310558F4C901019690939B0780939A0796
:102EE000F901EC5AF84F108306C010929C0710921B
:102EF0009B0710929A0780915407833509F470C09C
:102F0000883509F47EC2823509F0CAC380919A07D8
:102F100090919B070A9708F4C3C380922B0190926B
:102F20002C01A0922D01B0922E0110923D0710921B
:102F30003C0782E50E94540DF092440780915D02A7
:102F400090915E02A0915F02B091600288519C4F07
:102F5000AF4FBF4F8093400790934107A093420724
:102F6000B09343076CE188E196E00E94AD11C82E52
:102F70008093500769E788E196E00E94AD11D82E52
:102F800080934F0747E26CE188E196E00E94630777
:102F900000E010E0402F69E788E196E00E946307B7
:102FA00061E070E080E090E00E94891466E288E1D0
:102FB00096E00E94AD110E94360B0F5F1F4F011566
:102FC00021E0120739F74C2D6CE188E196E00E9470
:102FD00063074D2D69E788E196E00E9463070CC204
:102FE00080919A0790919B078430910508F458C30B
:102FF000E0915607079708F453C3F0E08F010D5F87
:103000001F4FEC5AF84F848190E0A0E0B0E04427D5
:10301000582F692F7A2F9581892F90E0A0E0B0E09A
:10302000DC0199278827480F591F6A1F7B1F9801C9
:103030002C5A384FD9012C91DB01CA01820F911D06
:10304000A11DB11D4680512C612C712C742C66245D
:1030500055244424480E591E6A1E7B1E44E5C42E86
:1030600047E0D42E4FEF5FEFBA01F60181916F0177
:103070000E940C09AB01BC01C60184559740801722
:1030800091079CF3F8EC4F27FBED5F27F9EB6F27D7
:10309000F5E47F27441555056605770509F0ACC1B1
:1030A000F0923F0780915D0290915E02A0915F02D5
:1030B000B091600288519C4FAF4FBF4F80934B0738
:1030C00090934C07A0934D07B0934E0780922B012D
:1030D00090922C01A0922D01B0922E0110923D07EA
:1030E00010923C07809154070E94540D8091050175
:1030F0000E94360B00E010E08091050190910601DE
:103100000817190728F4F801E050FF4F808101C02B
:1031100080E00E94360B0F5F1F4F0530110561F7ED
:1031200008E217E0F80181919191A191B1918F018D
:1031300089839A83AB83BC8364E070E0CE010196FF
:103140000E94ED0AF7E00C331F0761F704E117E076
:10315000F80181919191A191B1918F0189839A8315
:10316000AB83BC8364E070E0CE0101960E94ED0A5F
:10317000F7E008321F0761F700E010E0C801880F90
:10318000991F9C01255F3E4F6901D9018D919C914A
:10319000892F0E94360BF601808191810E94360BA7
:1031A0000F5F1F4F0031110549F780911007909173
:1031B0001107A0911207B091130789839A83AB83FB
:1031C000BC8364E070E0CE0101960E94ED0A80911C
:1031D0000C0790910D07A0910E07B0910F078983FE
:1031E0009A83AB83BC8364E070E0CE0101960E94B9
:1031F000ED0A8091080790910907A0910A07B09104
:103200000B0789839A83AB83BC8364E070E0CE01B3
:1032100001960E94ED0A8091040790910507A09104
:103220000607B091070789839A83AB83BC8364E068
:1032300070E0CE0101960E94ED0A80910007909106
:103240000107A0910207B091030789839A83AB839A
:10325000BC8364E070E0CE0101960E94ED0A40E874
:103260006FE088E196E00E94630740E262E188E156
:1032700096E00E9463076FE088E196E00E94AD113E
:1032800087FFF9CF61E188E196E00E94AD11682FD8
:1032900070E080E090E00E949D2520E030E040E07A
:1032A0005FE30E942B2620E030E040E752E40E94DA
:1032B000BE246093FC067093FD068093FE069093F7
:1032C000FF0669837A838B839C8364E070E0CE0180
:1032D00001960E94ED0A6BE288E196E00E94AD1132
:1032E0000E94360B80911D050E94360B80911E05B1
:1032F0000E94360B84E090E00E94F7080E94360B93
:1033000085E090E00E94F7080E94360B8091FA0653
:103310000E94360B80911706811102C082E501C020
:1033200084E50E94360B82E390E00E94AD160E9475
:10333000360B80915602909157029A83898362E0FE
:1033400070E0CE0101960E94ED0A64E070E0CE01CB
:1033500001960E94ED0A64E070E0CE0101960E94A1
:10336000ED0A8091F9060E94360B0E94F1098093C4
:103370003E070E94360B09EE16E0D8018D918D01B3
:103380000E94360BB6E0093F1B07B9F78091E806AB
:103390000E94360B00E110E080E00E94360B0150E5
:1033A0001109D1F780912B0190912C01A0912D0151
:1033B000B0912E01E8EC8E27EBED9E27E9EBAE27CE
:1033C000E5E4BE278093470790934807A0934907F9
:1033D000B0934A078091470790914807A091490709
:1033E000B0914A0789839A83AB83BC8364E070E021
:1033F000CE0101960E94ED0A1092510710929C078F
:103400005AC180919A0790919B078430910508F4E6
:1034100047C1E0915607F0E09F01295F3F4F8217B7
:10342000930708F43DC18F010D5F1F4FEC5AF84F11
:10343000848190E0A0E0B0E04427582F692F7A2FD4
:103440009581892F90E0A0E0B0E0DC0199278827E2
:10345000480F591F6A1F7B1F98012C5A384FD901FA
:103460002C91DB01CA01820F911DA11DB11D468067
:10347000512C612C712C742C662455244424480E44
:10348000591E6A1E7B1E54E5C52E57E0D52E4FEF00
:103490005FEFBA01F60181916F010E940C09AB0147
:1034A000BC01C60184559740801791079CF3F8EC46
:1034B0004F27FBED5F27F9EB6F27F5E47F274415D6
:1034C00055056605770509F097CF80922B019092FC
:1034D0002C01A0922D01B0922E0110923D07109266
:1034E0003C07809154070E94540D60915507862F28
:1034F00090E09093060180930501A7E5B7E080E096
:10350000C82E81E0D82EF6018D91819321E0E5301F
:10351000F207D1F78AE290E00E94AB1600E010E0DB
:1035200080910501909106010817190750F4D60102
:103530006D916D01C8018B960E94AB160F5F1F4FF6
:10354000EFCF60915C0782E390E00E94AB16609140
:103550007E076093560280917F078093570280E335
:1035600090E00E94AB166091570281E390E00E94C8
:10357000AB160E94350565E580E090E00E94AB1631
:103580006CE481E090E00E94AB1662E582E090E09E
:103590000E94AB1663E583E090E00E94AB1662E008
:1035A00084E090E00E94AB1661E285E090E00E942A
:1035B000AB1603E310E0F801E65DF84F6081C80147
:1035C0000E94AB160F5F1F4F03341105A1F76091E6
:1035D0006D0783E490E00E94AB1604E410E0F8016C
:1035E000E65DF84F6081C8010E94AB160F5F1F4F68
:1035F00004351105A1F70E94A8090E94F1098093E2
:103600003E070E94A60D88E196E00E946C100E9481
:10361000580EF2CE2091520730915307F901EB5A20
:10362000FE4F8081181310C02F5F3F4F3093530718
:10363000209352072430310599F5F0929C0710929F
:1036400053071092520737C02130310519F48FE229
:103650000E9483048091520790915307029731F49E
:103660008FE20E94830486E70E94830480915207C0
:1036700090915307039749F48FE20E94830486E7F1
:103680000E9483048AE20E948304109253071092DE
:10369000520710929C0710925107812F0E948304B9
:1036A00089E795E00E94E511F7CB2A3B324041F4CF
:1036B0000E94BF1605C010929B0710929A07F0CF88
:1036C0000F900F900F900F90DF91CF911F910F915E
:1036D000FF90DF90CF90BF90AF909F908F907F90A2
:1036E0006F905F904F900895CF92DF92EF92FF928C
:1036F0000F931F93CF93DF936C017A018B01C0E08E
:10370000D0E0CE15DF0589F0D8016D918D01D6018D
:10371000ED91FC910190F081E02DC6010995892B76
:1037200011F47E0102C02196ECCFC701DF91CF9149
:103730001F910F91FF90EF90DF90CF900895CF935E
:103740008091190691E09093470580936905109246
:10375000480510926A0560E08BE695E00E944613EA
:103760000E949A0380911906909146059111FCCF11
:1037700091E090934605909345052FEF20934405E3
:1037800010924305109242059093210590912105D6
:10379000880F892B8093210580912005813061F469
:1037A00010922005809121058093BB008091BC0080
:1037B00083FDF8CF85EC01C085EE8093BC0080913D
:1037C00046058130E1F380914305811103C080916A
:1037D000430501C081E0A2E2B5E02FE937E0F9013D
:1037E0009E2F921B981718F49D919193F9CF1092E8
:1037F0004607809345078BE695E00E94FA12C82F92
:10380000682F6F76606180E00E94EC16000060E730
:103810008EEF0E94EC166C2F80E00E94EC1665E0A3
:1038200070E080E090E00E9489146C2F616A80E073
:10383000CF910C94EC16CF93DF9300D01F92CDB7AD
:10384000DEB7789484B5826084BD84B5816084BD20
:1038500085B5826085BD85B5816085BD80916E002E
:10386000816080936E00109281008091810082605F
:10387000809381008091810081608093810080919C
:1038800080008160809380008091B100846080938B
:10389000B1008091B00081608093B00080917A0087
:1038A000846080937A0080917A00826080937A00AD
:1038B00080917A00816080937A0080917A0080689C
:1038C00080937A001092C10060E080E00E9428148A
:1038D00061E081E00E9428148091B90083608093A8
:1038E000B90088E196E00E946C1062E370E080E02D
:1038F00090E00E9489140E9406170E949F1B6AE0B4
:1039000070E080E090E00E9489140E949F1B6AE0B2
:1039100070E080E090E00E94891460E088E196E029
:103920000E940F1160E088E196E00E942C110E9435
:10393000580E0E94FA08873E910544F503E310E013
:103940006DEC600FC8010E94AB160F5F1F4F033470
:103950001105B1F704E410E060E0C8010E94AB1665
:103960000F5F1F4F04351105B9F761E083E490E064
:103970000E94AB1662E084E090E00E94AB166FE11B
:1039800085E090E00E94AB160E94A8090E94FA0808
:10399000873E910561F462E084E090E00E94AB16FE
:1039A00060E285E090E00E94AB160E94A8090E94A8
:1039B000FA08883E910561F462E084E090E00E949C
:1039C000AB1661E285E090E00E94AB160E94A80968
:1039D0000E94A60D88E196E00E946C100E94580E8D
:1039E00004E010E081E00E94A1066EE170E080E05A
:1039F00090E00E94891480E00E94A1066EE170E0D0
:103A000080E090E00E9489140150110959F70E944A
:103A1000F10980933E071EEB812E912CA12CB12C35
:103A200002E0202E312C0E94C31460935D0270933B
:103A30005E0280935F02909360020091F00110910A
:103A4000F1012091F2013091F30108511C4F2F4FE9
:103A50003F4F0617170728073907A0F420914302A4
:103A6000309144023093EF012093EE011092440212
:103A7000109243026093F0017093F1018093F20180
:103A80009093F3018CE08093B8008091B8008A8312
:103A90008091B90089836CE088E196E00E94AD11C5
:103AA000811111C00E948F050E942305E09107013A
:103AB000F0E0E050FF4F408169E788E196E00E9426
:103AC00063070E9410050E942F1760915D0270919C
:103AD0005E0280915F02909160022CE430E040E051
:103AE00050E00E94E52611E06732710581059105DD
:103AF00020F410E06091ED0101C060E088E196E003
:103B00000E940F11112319F06091EC0101C060E0D7
:103B100088E196E00E942C1140915D0250915E0276
:103B200060915F027091600280914007909141071F
:103B3000A0914207B091430784179507A607B707DE
:103B400018F41092440703C081E08093440761E3B6
:103B500088E196E00E94AD1184FFCAC080915D02A9
:103B600090915E02A0915F02B09160024091F801D5
:103B70005091F9016091FA017091FB018C019D0156
:103B8000041B150B260B370B0F31110521053105D1
:103B900008F4AEC08093F8019093F901A093FA0164
:103BA000B093FB0166E288E196E00E94AD11282FF8
:103BB00030E03093FB062093FA062933310548F0B4
:103BC000283F310510F027EF30E0C901A0E0B0E058
:103BD00004C089E390E0A0E0B0E09C01AD0129536E
:103BE000310941095109AFEFB0E00E94D226A50189
:103BF00094010E94B326822F0E94B702C090FA0659
:103C0000D090FB0619E3C116D10450F0C601883FDD
:103C1000910510F087EF90E06C01E12CF12C05C0CC
:103C2000B9E3CB2ED12CE12CF12C23E333E343E792
:103C30005FE36091F4017091F5018091F60190913C
:103C4000F7010E942B262B013C01A7019601295365
:103C5000310941095109ACE6B5EF0E94E026A50102
:103C600094010E94B326DA01C9018C53944EAF4FE0
:103C7000BF4FBC0180E090E00E949D252DEC3CEC04
:103C80004CE45DE30E942B269B01AC01C301B20111
:103C90000E94BF246093F4017093F5018093F601B4
:103CA0009093F70100000091070110E066E288E1BF
:103CB00096E00E94AD11000F111F000F111F0C5E46
:103CC000184F682F70E080E090E00E949D2523E36C
:103CD00033E343EF5FE30E942B2520E030E042E036
:103CE00053E40E94BE24F80160837183828393832E
:103CF00080911706882309F44FC180915402909156
:103D00005502019709F05CC061E388E196E00E94EA
:103D1000AD1183FDA6C254C0F801E455FE4F3081B9
:103D200020913002223380F480912F028F5F62E372
:103D30000E94842490932F022F5F20933002E92F5A
:103D4000F0E0E350FE4F30830E94AF1618161906BC
:103D50000CF4BEC20F5F1F4F8091A90190E00817BD
:103D60001907D4F28091100790911107A0911207C2
:103D7000B09113070196A11DB11D80931007909378
:103D80001107A0931207B093130780913702909107
:103D900038020196909338028093370280E090E0D9
:103DA000FC01E855FE4F1082019680349105C1F761
:103DB000109253020E942F17109255021092540233
:103DC00040915D0250915E0260915F0270916002CD
:103DD0008091E8019091E901A091EA01B091EB0195
:103DE000C296A11DB11D84179507A607B70738F025
:103DF0008091540290915502892B19F08CC0109239
:103E0000EC0180914407811186C080913E07882390
:103E100009F481C04093E8015093E9016093EA01FD
:103E20007093EB010E94641480915302823060F021
:103E3000E091070104E0E09FF0011124EC5EF84FEF
:103E4000108211821282138200911D0510911E05AD
:103E500080917805811129C080917705811125C055
:103E60000E947D060E94CF13892BF9F483E480938E
:103E7000680181E0809369010E946F0B86E4809362
:103E80006C018091000790910107A0910207B09109
:103E900003070196A11DB11D8093000790930107B0
:103EA000A0930207B093030719C08091A90189323A
:103EB00010F480916901809152028F5F817080932C
:103EC0005202882309F41EC280911D0590911E059F
:103ED0000E94F50D10934D0200934C022091690150
:103EE00080914A0290914B02820F911D90934B0258
:103EF00080934A020E94B90B809148029091490236
:103F00000196909349028093480230925502209284
:103F100054020E9422088091540290915502029707
:103F2000D9F561E388E196E00E94AD1180FF34C0CD
:103F30000E94B6040E94DF040E94790B1091530284
:103F4000812F90E00597CCF01092FB061092FA06B4
:103F500080E00E94B7028091100790911107A09114
:103F60001207B0911307892B8A2B8B2B49F0809174
:103F70003F07811105C081E001C080E00E94A106D9
:103F80001F5F1093530281E08093470221E030E0ED
:103F9000309355022093540280911606882309F429
:103FA00044C18091450290914602892B09F0EFC0EF
:103FB00040915D0250915E0260915F0270916002DB
:103FC0008091640190916501A0916601B0916701B3
:103FD0008A019B01081B190B2A0B3B0B00331105AF
:103FE0002105310510F18091310290913202A091AA
:103FF0003302B09134020196A11DB11D80933102AC
:1040000090933202A0933302B09334024093640140
:1040100050936501609366017093670180E00E9490
:10402000B7020E94B6040E94B60480915D0290918E
:104030005E02A0915F02B091600240915C015091DC
:104040005D0160915E0170915F01841B950BA60B71
:10405000B70B893E9340A105B105D0F08091F906D8
:10406000811116C081E08093F9061092EC018091D5
:104070001606882331F01092ED011092460210923C
:1040800045020E943B0D0E94CA0880E00E94B702D0
:1040900061E388E196E00E94AD1183FDA0C177C085
:1040A0000091A90110E00C5F1F4F6BE488E196E0DE
:1040B0000E94AD118013DBC280911007909111070F
:1040C000A0911207B09113070196A11DB11D809315
:1040D000100790931107A0931207B09313070E9443
:1040E000530D2091A9018091400290914102820FCD
:1040F000911D909341028093400280913C029091E7
:104100003D02A0913E02B0913F020196A11DB11D5A
:1041100080933C0290933D02A0933E02B0933F02F5
:104120000E94B6040E9464140E942F1761E070E0A0
:1041300080E090E00E94891480913E07882309F472
:10414000DEC281E08093EC018093ED0180911D053A
:1041500090911E050E94F50D2091690180914A02FF
:1041600090914B02820F911D90934B0280934A02D3
:104170008091480290914902019690934902809360
:1041800048020E94B90B309246022092450280916B
:10419000450290914602029729F561E388E196E095
:1041A0000E94AD1180FF1EC00E94B10B80915D0284
:1041B00090915E02A0915F02B091600280936401D1
:1041C00090936501A0936601B09367010E942F1739
:1041D0000E94DF040E94790B109246021092450261
:1041E0000E94220880914502909146028D7F892B82
:1041F000E1F00E94B10B80915D0290915E02A0916E
:104200005F02B09160028093640190936501A09376
:104210006601B09367010E942F170E94DF040E947D
:10422000790B109246021092450280915D029091A6
:104230005E02A0915F02B0916002409160015091D6
:1042400061016091620170916301841B950BA60B63
:10425000B70BC397A105B10508F4E5CB0E9422086E
:10426000E2CB0E946414709336026093350211E031
:10427000109342020E946414109247020E94D004DC
:104280000E94C4078091430290914402019690934A
:104290004402809343020E94B607882309F48ACD22
:1042A0001093EC011092F9062091A901809140022F
:1042B00090914102820F911D9093410280934002A0
:1042C0008091A801823409F069CD00E010E044CD6E
:1042D00020913002222309F43DCD8091FC018F5FB3
:1042E00062E30E9484249093FC01215020933002C9
:1042F000E92FF0E0E350FE4F608189E795E00E94EE
:104300001C1222CD83E78093680188E180936901C4
:104310000E946F0B45E050E080E090E08031910515
:10432000ACF59C012F5F3F4FFC01EE0FFF1FE55FD7
:10433000FE4F6081718176956795645F7140F4E00E
:10434000660F771FFA95E1F7FA01E959FE4F70837E
:10435000FA01E859FE4F608320313105A9F0029639
:10436000220F331FD901A55FBE4F2D913C91369589
:104370002795245F314060813F70362B3083FA01EE
:10438000E759FE4F208302C080E190E04D5F5F4F10
:10439000803191051CF28091040790910507A0914E
:1043A0000607B09107070196A11DB11D8093040770
:1043B00090930507A0930607B093070780915D02CD
:1043C00090915E02A0915F02B091600280934E02D4
:1043D00090934F02A0935002B09351027BCD0E9464
:1043E0006414709336026093350211E01093420218
:1043F0000E94D004809143029091440201969093D0
:104400004402809343020E9464140E94C4070E94E5
:104410002F170E94B607882309F4B9CE8091420273
:10442000811108C00E9464147093360260933502B3
:104430001093420281E08093EC011092F906809182
:104440005D0290915E02A0915F02B0916002809344
:104450005C0190935D01A0935E01B0935F01809138
:10446000A801833509F041C080913A0290913B0246
:10447000019690933B0280933A0224E030E040E0C2
:1044800050E0F901E855FE4F8081F901E755FE4FF4
:10449000608190E0982F8827860F911DBC01695E8E
:1044A00073406F397F4038F4FA01EE0FFF1FE55F6C
:1044B000FE4F918380834F5F5F4F2E5F3F4F2432CB
:1044C0003105F9F680910C0790910D07A0910E0728
:1044D000B0910F070196A11DB11D80930C07909319
:1044E0000D07A0930E07B0930F078091A8018337A3
:1044F00009F066C080913A0290913B020196909338
:104500003B0280933A0224E030E040E050E0F901C1
:10451000E855FE4F6081F0E16F9FB0011124D90191
:10452000A755BE4F8C9190E004E0959587950A952C
:10453000E1F7862B972B8C509E4F880F991FBC015B
:10454000685E7340613A7F4058F4609139026111AE
:10455000FCCFFA01EE0FFF1FE55FFE4F91838083D2
:104560008C918F7090E0982F8827F901E655FE4FC7
:104570006081862B8C509E4F880F991FBC01685E0E
:104580007340613A7F4008F4C7C04E5F5F4F2D5FB4
:104590003F4F2C31310509F0BACF80910C07909133
:1045A0000D07A0910E07B0910F070196A11DB11D37
:1045B00080930C0790930D07A0930E07B0930F07FD
:1045C0008091A801833449F58091AC01863429F5A6
:1045D000FAE0EF2EF12C00E010E00000C801880F97
:1045E000991F9C01255F3E4F6901F90180819181EE
:1045F000692FC7010E94AB16F60160817181C70166
:1046000001960E94AB160F5F1F4FF2E0EF0EF11CF8
:104610000031110511F70E94A8098091A801823488
:1046200009F05DCD80913702909138020196909308
:104630003802809337028091A90100E010E0809158
:10464000A90190E0081719070CF02ACDF801E455EC
:10465000FE4F60816B830E94AF166B810F97D4F37E
:1046600089E795E00E941C120F5F1F4FE8CF20E002
:1046700030E0F801E855FE4F408160E1469FA0011F
:104680001124D801A755BE4F8C9190E064E0959518
:1046900087956A95E1F7842B952B8C509E4F880F58
:1046A000991FAC01485E5340413A5F4058F4409135
:1046B00039024111FCCFF901EE0FFF1FE55FFE4FFC
:1046C000918380838C918F7090E0982F8827F801D8
:1046D000E655FE4F4081842B8C509E4F880F991FCA
:1046E000AC01485E5340413A5F40F0F02E5F3F4FCF
:1046F0000D5F1F4F2031310509F0BBCFDDCC10928B
:10470000ED010E942F170E94DF040E94790B109286
:104710004602109245023BCDFA01EE0FFF1FE35F08
:10472000FE4F9183808331CFF901EE0FFF1FE35FCE
:10473000FE4F91838083DACF1F93CF93DF9300D016
:10474000CDB7DEB710927C0510927B0588EE93E022
:10475000A0E0B0E080937D0590937E05A0937F0557
:10476000B093800528E331E030937A0520937905F2
:1047700025EC30E0309386052093850524EC30E06D
:10478000309388052093870520EC30E030938A052C
:104790002093890521EC30E030938C0520938B0524
:1047A00022EC30E030938E0520938D0526EC30E02E
:1047B0003093900520938F051092920510929305E7
:1047C000109294051092950510926E0510926D0549
:1047D00080936F0590937005A0937105B093720557
:1047E00088E491E090936C0580936B0580E480935E
:1047F00019061092200610921F0611E010937805FA
:104800001092770588E196E00E946C1066E388E1DB
:1048100096E00E94AD118A8348E566E388E196E060
:104820000E94630766E388E196E00E94AD118983E8
:104830004A8166E388E196E00E94630789818835B2
:1048400021F481E080931E064FC0109278051093EA
:10485000770588E196E00E946C1088E196E00E945E
:104860008B078111EECF1092770588E196E00E94C8
:104870006C1088E196E00E948B078111E2CF60E026
:104880008CE00E94281460E08DE00E94281460E013
:1048900089E00E94281460E088E00E94281488E1E2
:1048A00096E00E945A1060E00E94281460E082E0C6
:1048B0000E94281488E196E00E944E1060E00E9459
:1048C000281488E196E00E943C1060E00E942814C1
:1048D00081E090E09093200680931F0662E370E0F1
:1048E00080E090E00E9489149091170681E089276A
:1048F000809316068CE790E00E9434040F900F908E
:10490000DF91CF911F910895991B79E004C0991F01
:10491000961708F0961B881F7A95C9F78095089519
:1049200097FB072E16F4009407D077FD09D00E945C
:10493000A42407FC05D03EF4909581959F4F0895DF
:10494000709561957F4F0895AA1BBB1B51E107C06D
:10495000AA1FBB1FA617B70710F0A61BB70B881F0F
:10496000991F5A95A9F780959095BC01CD0108959E
:10497000EE0FFF1F0590F491E02D09945058BB27CE
:10498000AA270E94D6240C94F1250E94E32538F032
:104990000E94EA2520F039F49F3F19F426F40C9484
:1049A000E0250EF4E095E7FB0C94DA25E92F0E9450
:1049B000022658F3BA17620773078407950720F099
:1049C00079F4A6F50C9424260EF4E0950B2EBA2F5C
:1049D000A02D0B01B90190010C01CA01A001112405
:1049E000FF27591B99F0593F50F4503E68F11A16B1
:1049F000F040A22F232F342F4427585FF3CF469542
:104A000037952795A795F0405395C9F77EF41F1663
:104A1000BA0B620B730B840BBAF09150A1F0FF0F2D
:104A2000BB1F661F771F881FC2F70EC0BA0F621F19
:104A3000731F841F48F4879577956795B795F79509
:104A40009E3F08F0B0CF9395880F08F09927EE0F9E
:104A50009795879508950E943F250C94F1250E9413
:104A6000EA2558F00E94E32540F029F45F3F29F041
:104A70000C94DA2551110C9425260C94E0250E9403
:104A8000022668F39923B1F3552391F3951B550B37
:104A9000BB27AA2762177307840738F09F5F5F4F11
:104AA000220F331F441FAA1FA9F335D00E2E3AF050
:104AB000E0E832D091505040E695001CCAF72BD068
:104AC000FE2F29D0660F771F881FBB1F26173707B9
:104AD0004807AB07B0E809F0BB0B802DBF01FF27EB
:104AE00093585F4F3AF09E3F510578F00C94DA25C9
:104AF0000C9425265F3FE4F3983ED4F38695779592
:104B00006795B795F7959F5FC9F7880F911D9695A3
:104B1000879597F90895E1E0660F771F881FBB1FFF
:104B2000621773078407BA0720F0621B730B840BAC
:104B3000BA0BEE1F88F7E0950895E89409C097FB3B
:104B40003EF490958095709561957F4F8F4F9F4F64
:104B50009923A9F0F92F96E9BB279395F6958795A8
:104B600077956795B795F111F8CFFAF4BB0F11F46B
:104B700060FF1BC06F5F7F4F8F4F9F4F16C0882312
:104B800011F096E911C0772321F09EE8872F762F48
:104B900005C0662371F096E8862F70E060E02AF089
:104BA0009A95660F771F881FDAF7880F9695879575
:104BB00097F9089597F99F6780E870E060E008959D
:104BC0009FEF80EC089500240A9416161706180625
:104BD0000906089500240A94121613061406050601
:104BE0000895092E0394000C11F4882352F0BB0F92
:104BF00040F4BF2B11F460FF04C06F5F7F4F8F4FF5
:104C00009F4F089557FD9058440F551F59F05F3F2F
:104C100071F04795880F97FB991F61F09F3F79F0DE
:104C200087950895121613061406551FF2CF469560
:104C3000F1DF08C0161617061806991FF1CF8695E2
:104C40007105610508940895E894BB2766277727C6
:104C5000CB0197F908950E943E260C94F1250E94FD
:104C6000E32538F00E94EA2520F0952311F00C94FA
:104C7000DA250C94E02511240C9425260E940226A6
:104C800070F3959FC1F3950F50E0551F629FF0019F
:104C9000729FBB27F00DB11D639FAA27F00DB11DB8
:104CA000AA1F649F6627B00DA11D661F829F222741
:104CB000B00DA11D621F739FB00DA11D621F839FC8
:104CC000A00D611D221F749F3327A00D611D231F9E
:104CD000849F600D211D822F762F6A2F11249F57EC
:104CE00050409AF0F1F088234AF0EE0FFF1FBB1FEF
:104CF000661F771F881F91505040A9F79E3F5105AE
:104D000080F00C94DA250C9425265F3FE4F3983E5E
:104D1000D4F3869577956795B795F795E7959F5F57
:104D2000C1F7FE2B880F911D9695879597F90895E9
:104D300081E090E0F8940C941627F999FECF92BD8B
:104D400081BDF89A992780B50895262FF999FECF4D
:104D50001FBA92BD81BD20BD0FB6F894FA9AF99A98
:104D60000FBE01960895052E97FB1EF400940E9435
:104D7000CA2657FD07D00E94E52607FC03D04EF453
:104D80000C94CA2650954095309521953F4F4F4F32
:104D90005F4F089590958095709561957F4F8F4FE7
:104DA0009F4F08950E940727A59F900DB49F900DD7
:104DB000A49F800D911D11240895B7FF0C94D22655
:104DC0000E94D226821B930B0895A1E21A2EAA1BE1
:104DD000BB1BFD010DC0AA1FBB1FEE1FFF1FA217AB
:104DE000B307E407F50720F0A21BB30BE40BF50BA8
:104DF000661F771F881F991F1A9469F76095709531
:104E0000809590959B01AC01BD01CF010895A29FB3
:104E1000B001B39FC001A39F700D811D1124911D8E
:104E2000B29F700D811D1124911D0895F894FFCF3C
:104E30002D32370000030001010001B80BB80BB898
:104E40000BB80BB80BB80BB80BB80BB80BB80BB84A
:104E50000BB80BB80BB80BB80BB80BFFFFFFFF017B
:104E600000000001000000001C12741BE511C311BA
:104E7000D711631200000000461316130E13FA1226
:0C4E8000EB12EA12002F762A240D0A0023
:00000001FF
